:020000040800F2
:10000000E80F002045010008793400084525000864
:100010009533000849090008C53F000800000000AA
:100020000000000000000000000000002D36000865
:10003000BD09000800000000A93400089537000839
:100040005F0100085F0100085F0100085F01000810
:100050005F0100085F0100085F0100085F01000800
:100060005F0100085F0100085F0100085F010008F0
:100070005F0100085F0100085F0100085F010008E0
:100080005F0100085F0100085F0100085F010008D0
:100090005F0100085F0100085F010008BF09000858
:1000A0005F0100085F0100085F0100085F010008B0
:1000B000113800085F0100085F0100085F010008B7
:1000C0005F0100085F0100085F0100085F01000890
:1000D0005F010008853E0008E53E0008553F000826
:1000E0005F0100085F0100085F0100085F01000870
:1000F0005F0100085F0100085F0100085F01000860
:100100005F0100085F0100085F0100085F0100084F
:100110005F010008E93B00087D3800085F01000826
:100120005F0100085F0100085F0100085F0100082F
:10013000DFF80CD000F044FB004800475D4B00089E
:10014000E80F00200648804706480047FEE7FEE724
:10015000FEE7FEE7FEE7FEE7FEE7FEE7FEE7FEE777
:100160000F38000831010008202A04DB203A21FA68
:1001700002F00021704721FA02F3D040C2F12002C0
:100180009140084319467047D2B201E000F8012BB4
:10019000491EFBD270470022F6E710B513460A4607
:1001A00004461946FFF7F0FF204610BD2DE9FE4F2B
:1001B000804681EA0300C00F0C46009021F0004108
:1001C00023F00045B8EB0200A94105D24046214684
:1001D00090461C460B46024623F00040104347D091
:1001E000270DC7F30A00C3F30A510290401A019089
:1001F00040286BDAC3F3130040F4801B009892464A
:1002000020B10023D2EB030A63EB0B0B0198594694
:10021000C0F14002504600F0EDF906460D4650464A
:100220005946019A00F0F5F910EB080061410024ED
:1002300087EA115284EAE7731A4340D0009A62B306
:10024000019A012A4FEA075215DC001B61EB0201FB
:100250004FF0004202EA0752CDE90042001C41F58E
:10026000801132462B4600F02CFA03B0BDE8F08F27
:1002700040462146F9E7001B61EB0201001C41F5F5
:10028000801300185B412018A2F5001747EB03010B
:1002900040EAD570B6196D4111E06D084FEA360697
:1002A00045EAC0754FEA0752001B61EB0201001CD2
:1002B00041F5801149084FEA30000019514132469A
:1002C0002B4603B0BDE8F04F00F0ECB900980122D6
:1002D00040000023D0EB020263EBE073009821465C
:1002E0004FEAE074B8EB000061EB0401E9E783F04A
:1002F00000435BE781F0004158E72DE9FE4F81EABA
:10030000030404F0004421F0004100944FF0000B7E
:1003100023F0004350EA01045ED052EA03045BD0AC
:10032000C3F30A54C1F30A552C44A4F2F3340194E4
:10033000A0FB0254C1F3130141F48011C3F3130372
:1003400043F4801301FB024400FB034E840A970A26
:1003500044EA815447EA8357A4FB076802958D0A53
:1003600005FB07854FEA932C04FB0C542705029DDF
:100370004FEA065847EA1637B5EB08056EEB070C4F
:10038000870E920E47EA811742EA8312A7FB020109
:10039000B6EB0B0164EB00042B0D43EA0C335E1843
:1003A00044EB1C50DA465146E7FB0201C5F3130447
:1003B0004FEA0B3343EA14534FEA0432019C43EAF9
:1003C0000603A4F10C040294009CCDE900B400F0F3
:1003D00078F903B0BDE8F08F00200146F9E72DE978
:1003E000F04D81EA030404F0004B21F0004514466F
:1003F0004FF0000A23F0004150EA050220D054EAF1
:1004000001021DD0C5F30A570246C5F31303C1F319
:100410001300C1F30A5640F4801543F48013A7EB90
:100420000608101BD64608F2FD3873EB050002D310
:1004300008F1010801E092185B41B8F1000F03DAFE
:1004400000200146BDE8F08D00204FF480110646E3
:1004500084460EE0171B73EB050705D3121B63EBF5
:10046000050306434CEA010C49084FEA3000921894
:100470005B4150EA0107EDD152EA030012D082EA53
:10048000040083EA0501084305D0101BAB4106D2E6
:100490000122002306E000224FF0004302E06FF04B
:1004A000010253101AEB06004CEB085110EB0A0046
:1004B00041EB0B01BDE8F04D00F0F4B80EB540F291
:1004C000334102910021CDE900110A460B4600F0AC
:1004D000F8F803B000BDC1F30A5210B5C1F313011F
:1004E00040F2FF3341F480119A4201DA002010BD3E
:1004F00040F233439A42A2F2334203DC5242FFF706
:1005000033FE10BD904010BD00F0004230F00040BE
:100510000AD0C10D01F56071C0F3160042EA015125
:10052000C20840071143704700200146704701F0A0
:10053000004330B421F0004150EA010206D00A0D18
:10054000A2F56072C1F31301002A02DC30BC002066
:100550007047440F44EAC104C100E01830BC00EB0E
:10056000C25000F068B830B50B460146002020228A
:10057000012409E021FA02F59D4205D303FA02F5B0
:10058000491B04FA02F52844151EA2F10102F1DC10
:1005900030BD2DE9F05F0546002092469B46884617
:1005A0000646814640241BE02846414647462246EF
:1005B000FFF7DAFD53465A46C01A914110D311464F
:1005C0001846224600F016F82D1A67EB01084F4630
:1005D00022460120002100F00DF817EB00094E41E2
:1005E000201EA4F10104DFDC484631462A4643467A
:1005F000BDE8F09F202A04DB203A00FA02F1002037
:1006000070479140C2F1200320FA03F31943904050
:100610007047202A06DBCB17203A41FA02F043EA62
:10062000E07306E041FA02F3D040C2F120029140AB
:100630000843194670470029A8BF7047401C49006D
:1006400008BF20F00100704710B4B0FA80FC00FA37
:100650000CF050EA010404BF10BC704749B1CCF162
:10066000200421FA04F411FA0CF118BF01212143EE
:100670000843A3EB0C01CB1D4FEA00614FEA1020A9
:1006800042BF002010BC704700EBC350104400294B
:10069000A4BF10BC7047401C490008BF20F00100F7
:1006A00010BC704710B5141E73F1000408DA401C2A
:1006B00041F1000192185B411A4301D120F0010081
:1006C00010BD2DE9F04D92469B4611B1B1FA81F271
:1006D00002E0B0FA80F220329046FFF78BFF04462A
:1006E0000F4640EA0A0041EA0B0153465A460843C6
:1006F00013D0114653EA010019D0C8F14002504608
:10070000FFF732FD05460E46504659464246FFF772
:1007100071FF084305D0012004E020463946BDE8BA
:10072000F08D0020054346EAE0762C4337430A98D3
:100730006305E40AA0EB08000022FD0A44EA4754DE
:100740000A3002D500200146E9E701051019694188
:10075000DDE9084500196941BDE8F04DA2E7C1F3A4
:100760000A52C1F3130140F2FF3341F480119A425F
:1007700002DA00200146704740F233439A42A2F267
:10078000334202DC5242FFF7EFBCFFF733BF0000F9
:1007900030B5041E71F1000404DB4FF00044404208
:1007A00064EB0101141E73F1000405DB1C464FF0DD
:1007B0000043524263EB0403994208BF904230BDAC
:1007C000064C074D06E0E06840F0010394E807009E
:1007D00098471034AC42F6D3FFF7AEFC90AF000858
:1007E000B0AF000810B500231A460C490C4804F0BD
:1007F00063F90C4A03210A4804F05AF9094A042112
:10080000074804F055F9074A0521054804F050F956
:10081000BDE81040024804F06DB90000B52600089C
:1008200080030020414B000870B52B48417D012911
:1008300051D10178AA2902D1C178552903D027A026
:1008400003F094FC41E0244A4378284892784FF41E
:100850000041012B09D0022B07D00024032B09D023
:10086000042B32D11FE0012201E0002AFBD100F06D
:10087000C6FA2AE04FF416731D481E495D42062A47
:1008800023D2DFE802F0220306080A0D04800C8060
:100890001BE0038005E0058000E003800D8014E08C
:1008A00005800B8011E01448062A0ED2DFE802F022
:1008B0000D030507090B047007E0012104E0022184
:1008C00002E0032100E004210170BDE87040162120
:1008D0000148FFF760BC70BDBC0B0020D6A1CDB7AE
:1008E000D6A1CEB2B3F6B4ED0D0A00000008014067
:1008F00020000020220000208A00002011480178FA
:10090000052910D2DFE801F00F0309101600B0F935
:100910000210B42907DC491C04E0B0F902100029D8
:1009200001DB491E41807047B0F90410B429FADC9C
:10093000491C04E0B0F904100029F4DB491E818051
:10094000704700008A000020FEE710B5044602F060
:10095000CBFD204602F0AAFD204602F01FFA2046F9
:10096000BDE8104002F0FCB930B50D46044602F077
:10097000BBFD204602F09AFD284602F00FFA2846F9
:10098000BDE8304002F0ECB930B582780A4C002165
:1009900004EB81039D78AA4207D1C578DB789D429C
:1009A00003D10846122904D230BD491CC9B212290C
:1009B000EED36FF0010030BD4200002070474020B0
:1009C00000F008B972B6FEE770B5104D80212846D8
:1009D00000F008FA0446A915284600F003FA44EA94
:1009E00040046915284600F0FDF944EA4004291541
:1009F000284600F0F7F944EA4004E914284600F0DC
:100A0000F1F944EA4000C0B270BD0000001001409E
:100A100010B590F821100022022905D0042181632D
:100A200080F82020012010BD01680B6823F00E0320
:100A30000B6001680B6823F001030B6090F84030F5
:100A4000C46B012101FA03F3636080F8211080F880
:100A50002020104610BD00002DE9F05F90F8211015
:100A60000024022903D004218163012485E0016868
:100A70000A6822F00E020A6001680A6822F0010288
:100A80000A603F4E3E4FB215DFF8F4C0DFF8F09039
:100A9000DFF8ECA0DFF8E8B0DFF8E4E00168783FC9
:100AA00013011502ACF1640CA9F15009AAF13C0A3A
:100AB000ABF1280BAEF1140E4FF48018B14227D9D8
:100AC000B9420ED0614512D049451DD0514518D0CC
:100AD000594518D0714501D1424615E0294EB14221
:100AE00001D1012210E0274E1436B14201D110226B
:100AF0000AE0244E2836B14206D0224A3C329142C6
:100B000001D11A4600E02A461E49091F0A602BE05F
:100B1000B94213D0614517D0494522D051451DD067
:100B200059451DD0714501D142461AE0B14202D16A
:100B30004FF0807215E0134EB14201D1012210E056
:100B4000104E1436B14201D110220AE00D4E283663
:100B5000B14206D00B4A3C32914201D11A4600E024
:100B60002A46074980394A60012180F82110002176
:100B700080F82010416B01B188472046BDE8F09F06
:100B8000800002400804024070B5044600F03CF9C1
:100B90000546601C02D004480078044400F034F993
:100BA000401BA042FAD370BD0C00002010B54021BC
:100BB000064800F017F900220549012801D00A7102
:100BC00010BD01208A60087110BD000000100140B6
:100BD000AC030020044910B50A68024202D0086044
:100BE000FFF7E4FF10BD0000140401402DE9F84FA9
:100BF000DFF8C8910024A9F1040B23460F2709F15F
:100C0000040AABF1040ED1E00125A54006EA050275
:100C1000AA4276D1DFF8A8C14E68A6EB0C0866455B
:100C20002BD00DDC032E34D005DC36B3012E19D0C9
:100C3000022E2FD11BE0112E16D0122E2AD119E030
:100C4000B8F5881F19D006DCB8F5803F15D0B8F587
:100C5000801F1FD111E0B8F5001F0ED0B8F5041F9A
:100C600018D10AE0CB6815E0CB681B1D12E0CB68F9
:100C700008330FE0CB680C330CE08B682BB1012BF1
:100C80004FF0080303D0456104E0042302E005614E
:100C900000E00023FF2A01D8064601E000F1040627
:100CA0004FEA840501D9A5F12005D6F8008007FA9E
:100CB00005FC28EA0C0803FA05F548EA0508C6F819
:100CC00000804D68ED0070D53E4DAE6946F00106DE
:100CD000AE61AD6924F0030605F0010500953A4DBB
:100CE00006EB050CDCF80850A607360F07FA06F8E5
:100CF00025EA0805DFF8D480404503D14FF000080D
:100D000025E052E0DFF8C880404502D14FF00108ED
:100D10001DE0DFF8C080404502D14FF0020816E028
:100D2000DFF8B480404502D14FF003080FE0DFF850
:100D3000AC80404502D14FF0040808E0DFF8A08005
:100D4000404502D14FF0050801E04FF0060808FACF
:100D500006F848EA0508CCF808804D68D9F8006024
:100D6000ED024D4601D5164300E096432E604D68D6
:100D7000DAF80060AD02554601D5164300E096430F
:100D80002E604D68DBF80060AD035D4601D516436B
:100D900000E096432E604D68DEF80060ED03754676
:100DA00001D5164300E096432E60641C0A6816467F
:100DB000E2407FF429AFBDE8F88F0000080401404D
:100DC0000000111000100240000001400008014026
:100DD000000C0140001001400014014000180140C7
:100DE000001C01408068084000D001207047C268A4
:100DF00021EA02030A4043EA0241016170470AB155
:100E0000016170470904FBE70148806870470000F2
:100E10000C0000200248816802781144816070470C
:100E20000C000020074810B5016841F01001016076
:100E3000032000F06DF80F2000F006F800F024F811
:100E4000002010BD0020024070B50D4D04464FF447
:100E50007A712878B1FBF0F00A490968B1FBF0F02B
:100E600000F011FC48B9102C07D200222146501E78
:100E700000F02EF800206C6070BD012070BD0000F5
:100E80000C00002018000020094808B5816941F0D5
:100E900001018161816901F001010091C16941F0A5
:100EA0008051C161C06900F08050009008BD000011
:100EB00000100240002809DB00F01F0201219140D0
:100EC0004009800000F1E020C0F8001170470000E8
:100ED000F0B40E4B1B680C46C3F30223C3F10705A5
:100EE000042D00D90425191D072901D2002300E093
:100EF000DB1E012606FA05F1491E214099409E405D
:100F0000761E16403143F0BC03F054B90CED00E0FE
:100F1000064900F0070208684FF6FF03184040EA50
:100F20000220034A10430860704700000CED00E007
:100F30000000FA052DE9F0470F46050061D0434E49
:100F4000306800F00700B84209D2306820F007008E
:100F500038433060306800F00700B84251D128684B
:100F60003B4C810712D5400703D5606840F4E06030
:100F700060602878000703D5606840F460506060C6
:100F80006068A96820F0F000084360602878C00716
:100F900028D06868012810D02168022810D089075D
:100FA00000292EDA616821F0030101436160FFF737
:100FB0002BFF804641F288390DE021688903EFE775
:100FC0008901EDE7FFF720FFA0EB0801494502D9B1
:100FD0000320BDE8F0876068696800F00C00B0EBA2
:100FE000810FEFD1306800F00700B8420BD93068AC
:100FF00020F0070038433060306800F00700B84246
:1010000001D00120E5E72878400705D56068E96848
:1010100020F4E060084360602878000706D5606827
:10102000296920F4605040EAC100606000F038F89F
:101030006168084AC1F30311515CC8400649086061
:1010400006480068FFF700FF0020C2E700200240CA
:1010500000100240CA4E00081800002010000020B6
:101060000448054900684968044AC1F30221515CFB
:10107000C84070471800002000100240DA4E0008F7
:101080000448054900684968044AC1F3C221515C1B
:10109000C84070471800002000100240DA4E0008D7
:1010A0000E4A51680E4801F00C03042B11D0082B96
:1010B0000FD10C48C1F38343C903C05C0AD5516802
:1010C000084AC1F34041921E515C054A5043B0FBAF
:1010D000F1F0704704494843704700000010024097
:1010E00000127A00BA4E000800093D002DE9F84FC1
:1010F000040070D02078C04DC00749D06868C0F3A4
:101100008100012807D06868C0F38100022809D156
:101110006868C00306D52868800339D56068002850
:10112000E7D035E06068B0F5803F0BD010B1B0F586
:10113000A02F11D0286820F480302860286820F47F
:10114000802002E0286840F480302860606890B118
:10115000FFF75AFE06460AE0286840F4802028601F
:10116000F0E700BFFFF750FE801B642873D82868A3
:101170008003F7D50CE0FFF747FE064605E000BF09
:10118000FFF742FE801B6428F0D828688003F7D45C
:1011900020789A4E80074FF001094FF0000839D5AA
:1011A000686810F00C0F07D06868C0F3810002284F
:1011B00009D16868C00306D42868800714D520695F
:1011C000012808D110E02069B0B1C6F80090FFF7FF
:1011D0001BFE074605E00AE1FFF716FEC01B0228CA
:1011E000C4D828688007F7D52868616920F0F8001E
:1011F00040EAC10028600DE0C6F80080FFF704FE59
:10120000074604E0FFF700FEC01B022823D8286829
:101210008007F7D4207800072CD57948A169D9B187
:10122000C0F80090FFF7F0FD074604E0FFF7ECFD83
:10123000C01B02280FD8686A8007F7D571484FF4A1
:10124000FA510068B0FBF1F0009000BF0098411E19
:101250000091FAD20EE080E0C0F80080FFF7D4FDE4
:10126000074604E0FFF7D0FDC01B022875D8686A66
:101270008007F7D42078400760D5E8690027C000D0
:1012800008D4E86940F08050E861E869012700F07F
:10129000805000905C480168C90513D401688346FA
:1012A00041F480710160FFF7AFFD824606E000BFA8
:1012B000FFF7AAFDA0EB0A0064284ED8DBF8000077
:1012C000C005F5D5E06801280AD008B1052813D07B
:1012D000286A20F001002862286A20F0040002E059
:1012E000286A40F001002862E06841F2883B98B12A
:1012F000FFF78AFD82460BE0286A40F0040028626E
:10130000EEE700BFFFF780FDA0EB0A0159455AD870
:10131000286A8007F6D50CE0FFF776FD824605E0E7
:10132000FFF772FDA0EB0A0159454CD8286A8007E7
:10133000F6D41FB1E86920F08050E861E06988B315
:101340006968C1F38101022944D00228C6F860808F
:1013500004D0FFF759FD044638E034E0FFF754FDB0
:10136000074604E0FFF750FDC01B02282BD8286871
:101370008001F7D4206AB0F5803F05D16868A16884
:1013800020F4003008436860D4E908010843696824
:1013900021F4741108436860C6F86090FFF734FDCB
:1013A000044606E025E000BFFFF72EFD001B0228E3
:1013B00009D828688001F7D51BE000BFFFF724FD9E
:1013C000001B022802D90320BDE8F88F286880019D
:1013D000F4D40EE00128F7D06868226A00F4803166
:1013E000914204D1616A00F47010884201D001205A
:1013F000EAE70020E8E70000001002400000424257
:1014000080044242180000200070004070B50400C3
:1014100009D0606A002540B125616561A56294F834
:10142000510040B10CE0012070BD6068B0F5827FD2
:10143000F4D0E561F2E784F85050204600F040F81F
:10144000022084F851002068016821F04001016009
:10145000A088218900F4827001F404410843A18925
:1014600001F400610843217C01F002010843217D61
:1014700001F001010843218B01F400710843217F31
:1014800001F03801084394F8201001F0800108436E
:10149000218D01F40051084321680860A0690421EE
:1014A00001EA1040216848602068C16921F40061A8
:1014B000C1616565012084F85100002070BD000005
:1014C00000B585B00021009101910291039100685F
:1014D000104988421BD11048C16941F48041C16163
:1014E000C16901F480410491816941F00801816181
:1014F0008069694600F0080004904FF42040009095
:1015000002200190032003900448FFF76FFB05B011
:1015100000BD00000038004000100240000C0140F7
:101520002DE9F84F984616468A460446FFF76CFCAC
:10153000814694F8510001281ED1BAF1000F73D0F2
:10154000002E71D094F85000012815D0012784F89E
:101550005070032084F8510000256565C4F830A060
:10156000A686E686A563A587E58765642564A068E9
:10157000B0F5004F03D00CE00220BDE8F88F2068E2
:10158000016821F0400101602068016841F4804158
:10159000016020680168490603D4016841F04001F8
:1015A0000160E068B0F5006F606803D048B3012EB9
:1015B00027D047E008B1012E1FD1206B2168008899
:1015C000C86006E020688168890709D5216B098811
:1015D000C160206B801C2063E08E401EE0860CE022
:1015E000FFF712FCA0EB0901414503D3B8F1FF3F1F
:1015F00003D035E0B8F1000F32D0E08E0028E1D101
:1016000023E0206B21680078087306E02068816879
:1016100089070AD5216B09780173206B401C206370
:10162000E08E401EE0860DE02BE0FFF7EDFBA0EB27
:101630000901414503D3B8F1FF3F03D010E0B8F1F1
:10164000000F0DD0E08E0028E0D14A4641462046EA
:1016500001F068FF08B120206065A06830B109E0A2
:1016600084F8517084F85050032086E72068C168E0
:101670008068009084F8517004F8505F606800281A
:10168000F3D0012079E710B5401EB0F1807F01D37F
:10169000012010BD4FF0E02460610F21601702F0BF
:1016A00089FD0020A06107202061002010BD704747
:1016B000704710B590F83C20012A22D0012280F812
:1016C0003C20CA688C6822F4407222434C6822F4A1
:1016D000806222430C6822F4006222430C6922F4E7
:1016E000805222434C6922F400522243C9690023EC
:1016F00022F480420A4301684A6480F83C300020AA
:1017000010BD022010BD000070B590F83C20012AE9
:101710002CD0012480F83C40022280F83D20036850
:101720005A689D6822F070060A6832435A60104B6E
:1017300002689A420ED00F4B9A420BD0B2F1804F02
:1017400008D00D4B9A4205D00C4B9A4202D00C4B5C
:101750009A4204D1496825F080031943916080F8CA
:101760003D40002180F83C10084670BD022070BD4D
:10177000002C0140003401400004004000080040FB
:10178000000C004010B5040003D094F83D0010B1E7
:1017900007E0012010BD002084F83C00204600F046
:1017A0001FF8022084F83D00211D206802F06CF82B
:1017B000012084F8460084F83E0084F83F0084F855
:1017C000400084F8410084F8420084F8430084F823
:1017D000440084F8450084F83D00002010BD00005E
:1017E00000B585B0002100910191029103912C4A2E
:1017F00001682C48914207D1816941F400618161FF
:10180000806900F400600CE0B1F1804F0CD0264AF2
:10181000914226D1C16941F00201C161C06900F065
:101820000200049005B000BDC16941F00101C16131
:10183000C16901F001010491816941F004018161F4
:101840008069694600F00400049002200090174867
:10185000FFF7CCF9002211461C20FFF739FB1C20B2
:101860001BE0134A914207D1C16941F00401C161F3
:10187000C06900F00400D4E70E4A9142D2D1C16998
:1018800041F01001C161C069002200F01000049015
:1018900011463620FFF71CFB3620FFF70BFBC1E794
:1018A000002C0140001002400004004000080140EC
:1018B000000800400010004090F83D10012901D0C0
:1018C00001207047022180F83D1000680E498842CF
:1018D0000ED00E4988420BD0B0F1804F08D00C4991
:1018E000884205D00B49884202D00B49884204D176
:1018F000816801F00701062903D0016841F0010168
:101900000160002070470000002C014000340140BD
:101910000004004000080040000C004070B5044680
:1019200090F83C000025012817D0012684F83C607F
:10193000022084F83D002068826822F0770222F4B9
:101940007F4282600868502838D00DDC20284FD0B4
:1019500005DC90B3102811D14AE0022070BD302878
:1019600046D040280AD13BE060282FD070280DD007
:10197000B0F5805F03D0B0F5005F12D0012584F888
:101980003D60002084F83C00284670BDCB68D1E95A
:101990000121206801F0D3FF2068816841F07701C0
:1019A00009E0CB68D1E90121206801F0C8FF206877
:1019B000816841F480418160E1E719E0CA684968C3
:1019C000206802F091F85021206806E0CA68496852
:1019D000206802F0D1F86021206801F0BAFFCEE75C
:1019E000CA684968206802F07FF840212068F4E75F
:1019F000226801461046F0E770472DE9F0410546A0
:101A000090F83C0000260C46012810D0012085F8F3
:101A10003C0072B1042A1CD0082A2CD00C2A50D0C9
:101A20000126002085F83C003046BDE8F081022008
:101A3000FBE7D4E90012E368286802F067F8286839
:101A4000816921F00C01816128688169A2681143D4
:101A50000FE0D4E90012E368286802F09FF82868D4
:101A6000816921F44061816128688169A26841EA45
:101A700002218161D5E72868D4E9002C277B036A1D
:101A8000016A21F480710162C16923F4007321F0BD
:101A9000030141EA0C0121F0F00C39074FF4007703
:101AA0004CEA116107EA02221A43C1610262286806
:101AB000C16921F00C01C1612868C169A2681143A4
:101AC0002BE02868D4E90021E768036AD0F820C039
:101AD0002CF4805CC0F820C0D0F81CC023F4005364
:101AE0002CF4407C4CEA012121F4704C4FF6FF713C
:101AF00001EA07314FF4005741EA0C0107EA0232CC
:101B00001A43C16102622868C16921F44061C16160
:101B10002868C169A26841EA0221C16181E710B564
:101B2000040003D094F83D0010B107E0012010BD7F
:101B3000002084F83C00204600F01EF8022084F8C3
:101B40003D00211D206801F09FFE012084F8460021
:101B500084F83E0084F83F0084F8400084F8410097
:101B600084F8420084F8430084F8440084F8450077
:101B700084F83D00002010BD7047000010B50446F9
:101B800051B104290DD0082910D094F8410094F8DF
:101B90004520012811D10EE094F83E0094F842202F
:101BA000F7E794F83F0094F84320F2E794F84000F8
:101BB00094F84420EDE7012A01D0012010BD022055
:101BC00049B304292CD008292FD084F8410084F887
:101BD00045000122206801F0A5FE164920688842D0
:101BE0000ED0154988420BD0B0F1804F08D0134970
:101BF000884205D01249884202D01249884204D155
:101C0000816801F00701062903D0016841F0010154
:101C10000160002010BD84F83E0084F84200D8E73F
:101C200084F83F0084F84300D3E784F8400084F848
:101C30004400CEE7002C0140003401400004004085
:101C400000080040000C00402DE9F0410446006807
:101C5000C66805694FF00007A90713D5B10711D56C
:101C6000F91E0161012020772068806980072046E5
:101C700002D0FFF7C1FE04E000F0DEF8204600F0DD
:101C800070F92777680716D5700714D521686FF0AB
:101C900004000861022020772068806910F4407FEA
:101CA000204602D0FFF7A8FE04E000F0C5F8204669
:101CB00000F057F92777280715D5300713D5216885
:101CC0006FF008000861042020772068C069800751
:101CD000204602D0FFF790FE04E000F0ADF8204669
:101CE00000F03FF92777E80616D5F00614D52168ED
:101CF0006FF010000861082020772068C06910F498
:101D0000407F204602D0FFF777FE04E000F094F811
:101D1000204600F026F92777E80708D0F00706D01C
:101D200021686FF001000861204600F075F928066F
:101D300008D5300606D521686FF08000086120467E
:101D4000FFF7B5FC680608D5700606D521686FF068
:101D500040000861204600F066F9A8060AD5B006E2
:101D600008D521686FF0200008612046BDE8F041E9
:101D7000FFF79EBCBDE8F08130B585B00021009131
:101D80000191029103910068254B26490224264ABD
:101D900098420FD1886940F00400886188696946DB
:101DA00000F0040004904FF41060CDE900041046E8
:101DB00003941DE01D4B1E4D98421DD1886940F0D3
:101DC00004008861886900F004000490886940F08C
:101DD000080088618869694600F008000490C02006
:101DE000CDE9000410460394FEF700FF032010E045
:101DF000FEF7FCFE05B030BD0E4A9042FAD188696C
:101E000040F008008861886900F0080004904FF4F1
:101E10007070CDE90004694628460394E8E70000A5
:101E2000002C014000100240000801400004004066
:101E3000000C014000080040704770B5044690F85F
:101E40003C0000260D4601280FD0012084F83C00FC
:101E50006AB1042A1DD0082A2FD00C2A3FD00126AF
:101E6000002084F83C00304670BD022070BD206820
:101E700001F078FD2068816941F0080181612068E6
:101E8000816921F004018161206881692A69114317
:101E900011E0206801F096FD2068816941F400613D
:101EA00081612068816921F4806181612068816994
:101EB0002A6941EA02218161D2E7206801F0B8FD78
:101EC0002068C16941F00801C1612068C16921F041
:101ED0000401C1612068C1692A69114311E02068C9
:101EE00001F0DAFD2068C16941F40061C161206838
:101EF000C16921F48061C1612068C1692A6941EA30
:101F00000221C161ACE710B5040003D094F83D0094
:101F100010B107E0012010BD002084F83C002046ED
:101F200000F01EF8022084F83D00211D206801F019
:101F3000ABFC012084F8460084F83E0084F83F00A2
:101F400084F8400084F8410084F8420084F843009B
:101F500084F8440084F8450084F83D00002010BD5A
:101F60007047704710B50446022249B104290ED0CB
:101F7000082913D094F84100012816D0012010BD83
:101F800094F83E000128F9D184F83E200FE094F83F
:101F90003F000128F2D184F83F2008E094F8400087
:101FA0000128EBD184F8402001E084F8412001228F
:101FB000206801F0B7FC13492068134A884201D019
:101FC000904203D1436C43F4004343642068884249
:101FD0000DD090420BD0B0F1804F08D00B49884211
:101FE00005D00B49884202D00A49884204D1816851
:101FF00001F00701062903D0016841F001010160E9
:10200000002010BD002C01400034014000040040BD
:1020100000080040000C004010B501F035FBBDE8A1
:10202000104001F005BB704770477047F8B5016874
:1020300004460868CA684B6910F00F0F4FF000059E
:1020400059D003F0010602F49077374365D0C107F9
:1020500005D0D10503D5616C41F0010161644107F0
:1020600005D5D90703D0616C41F002016164810795
:1020700005D5D90703D0616C41F004016164010703
:1020800007D502F02001314303D0616C41F0080113
:102090006164616C00293AD0800604D5900602D5AF
:1020A000204601F0F8FD20684069616CC0F38010A3
:1020B000090700D460B3204601F0C6FD20684069DE
:1020C000400621D52068143050E8001F21F040015F
:1020D00040E80012002AF5D1E06BA8B16D494163D8
:1020E000E06BFEF7B9FC002811D0E06B416B01B04A
:1020F000BDE8F040084783060FD593060DD520466E
:10210000BDE8F84001F0C7BD2046FFF78EFFF8BDDF
:102110002046FFF78AFF6564F8BD266B2023012E59
:102120007CD1C6067AD5D60678D50868486800906E
:1021300048694FF00206400640D5E16B08684068E8
:102140000004000CE8D0A28D8242E5D9E0858869C0
:1021500020282DD020680C3050E8001F21F4807119
:1021600040E80012002AF5D12068143050E8001F22
:1021700021F0010140E80012002AF5D12068143056
:1021800050E8001F21F0400140E80012002AF5D17C
:1021900084F84230256320680C3050E8001F21F09D
:1021A000100140E80012002AF5D1E06BFEF730FC88
:1021B0006663A08DE18D401A81B22AE0A08DE18D89
:1021C000401A81B2E08D0028A6D00029A4D0226850
:1021D0000C3252E8000F20F4907042E80007002F04
:1021E000F5D12068143050E8002F22F0010240E8B9
:1021F0000027002FF5D184F84230256320680C3089
:1022000050E8002F22F0100240E80023002BF5D107
:1022100066632046FFF708FFF8BDFFE705062BD5EC
:10222000150629D594F841002128F5D1A068B0F50C
:10223000805F01D12069B0B1206A411C2162216810
:1022400000784860E08C401E0004000CE084E3D17C
:102250002068C16821F08001C1602068C16841F038
:102260004001C160D8E7206A0088C0F308004860D8
:10227000206A801C2062E5E74006CDD55006CBD50C
:10228000CA68204622F04002CA6084F8413000F05B
:1022900058F9C1E7393C000870B5040004D094F83F
:1022A0004100002510B106E0012070BD84F84050C7
:1022B000204600F023F8242084F841002068C168FB
:1022C00021F40051C160204601F046FD20680169FB
:1022D00021F4904101612068416921F02A014161A6
:1022E0002068C16841F40051C1606564202084F811
:1022F000410084F842006563002070BDF0B585B0F0
:10230000002400940194029403945C4D03685C489B
:10231000022103220426AB422DD1C36943F480136A
:10232000C361C36903F480130493836943F010030A
:102330008361836903F010030493836943F02003EE
:1023400083618069039200F020000490C802CDE907
:10235000000169464B48FEF749FCCDE90064694637
:1023600049480294FEF742FC002211463520FEF750
:10237000AFFD35202AE0464DDFF810C12F1563452B
:1023800028D1836943F480438361836903F48043E4
:102390000493836943F0040383618069039200F02E
:1023A000040004906815CDE9000169462846FEF74F
:1023B0001DFCCDE90074694628460294FEF716FC20
:1023C000002211462520FEF783FD2520FEF772FD31
:1023D00005B0F0BDDFF8BCC0634525D1C36943F447
:1023E0000033C361C36903F400330493836943F08A
:1023F000040383618069CDE9006100F00400CDE948
:10240000032069462846FEF7F1FB0820CDE90004C9
:10241000694628460294FEF7E9FB00221146262071
:10242000FEF756FD2620D1E71B4DAB42D0D1C36944
:1024300043F48023C361C36903F480230493836955
:1024400043F0080383618069CDE9007100F0080062
:10245000CDE90320114D69462846FEF7C7FBE81475
:10246000CDE90004694628460294FEF7BFFB00222E
:1024700011462720FEF72CFD2720A7E7005000403B
:1024800000100240001001400014014000380140DB
:10249000000801400044004000480040000C01409A
:1024A00070472DE9F843044690F8410098461646D7
:1024B0000D46202802D00220BDE8F88385B17EB108
:1024C00000206064212084F84100FEF79DFCA68472
:1024D0008146E684A0682027B0F5805F02D003E043
:1024E0000120E9E7206910B12E4600250EE0002604
:1024F0000CE08021204601F08BFCA8B9C6B116F88B
:10250000010B21684860E08C401EE084E08C4B4663
:102510004FF00002CDF800800028EAD14FF04001D2
:10252000204601F075FC40B184F841700320C3E7F8
:1025300035F8020BC0F30800E3E784F8417000208F
:10254000BAE77047FEE7000010B50948FFF7B4F995
:1025500004210748FFF712FB05480168CA6842F0EA
:102560000102CA600068C16841F00401C16010BD89
:10257000340100202DE9F05F4A4D6888E0B14A4FF0
:102580004FF47A721346788842F2283101F021FB29
:102590004FF000082C1D90B14FF4FA72B946B8887C
:1025A000134641F2941101F014FB40B103274FF49C
:1025B0000C7A4FF0010B3DE00120BDE8F09F0226B0
:1025C0005BE000BFC82339F817001A46514601F0F6
:1025D00000FBE8B37F1CBFB2C82339F817001A46C6
:1025E000514601F0F6FA50B1E18804EBD10001F058
:1025F000070342780BFA03F18A43427015E0C823BF
:1026000039F817001A4640F29A6101F0E2FA0128FF
:1026100001D0042631E0E08804EBD00100F007038C
:102620004A780BFA03F002434A70E088401C7F1C92
:10263000E080BFB22888401E8742C3DB601CFEF7E3
:10264000A3F9122819D217490C31085C207000E058
:1026500012E01649042046460880A4F80680A5F832
:1026600000804102A5F802800F48FDF794FDC5F8EF
:1026700005606E720020A0E703264FF400610A484F
:10268000FDF789FDC5F8058085F80980A4F8068066
:10269000A5F80080A5F802800548FFF70DF930463F
:1026A0008BE7000024000020BC0300200400002071
:1026B0003401002008B10020704701210148FEF7D5
:1026C00091BB0000000801402DE9F04107461C467F
:1026D00015460E462A2000F015FBBF1CB8B200F0CC
:1026E00006FBAD1CA8B200F002FB2B2000F00AFB99
:1026F000761CB0B200F0FBFA641CA0B200F0F7FA4E
:10270000BDE8F0412C2000F0FDBA10B514460B4690
:102710000246FFF7D9FF2046BDE8104000F0E7BAB7
:1027200070B5141A5D1A6C435B1E521EA5B29BB2A3
:1027300092B2049EFFF7C8FF002404E0304600F088
:10274000D6FA641CA4B2AC42F8D370BD70B57F4D0C
:102750004FF48054002221462846FEF750FB6420A7
:10276000FEF712FA012221462846FEF748FB6420B4
:10277000FEF70AFA012210217548FEF740FB64209B
:10278000FEF702FA112000F0BDFA7820FEF7FCF9FE
:10279000B12000F0B7FA052000F0CAFA3C2000F0A2
:1027A000C7FA3C2000F0C4FAB22000F0ABFA0520D2
:1027B00000F0BEFA3C2000F0BBFA3C2000F0B8FA72
:1027C000B32000F09FFA052000F0B2FA3C2000F0A0
:1027D000AFFA3C2000F0ACFA052000F0A9FA3C204A
:1027E00000F0A6FA3C2000F0A3FAB42000F08AFA28
:1027F000032000F09DFAC02000F084FA282000F0A9
:1028000097FA082000F094FA042000F091FAC12011
:1028100000F078FAC02000F08BFAC22000F072FAC3
:102820000D2000F085FA002000F082FAC32000F0AD
:1028300069FA8D2000F07CFA2A2000F079FAC42091
:1028400000F060FA8D2000F073FAEE2000F070FACC
:10285000C52000F057FA1A2000F06AFA362000F07E
:1028600051FAC02000F064FAE02000F04BFA042096
:1028700000F05EFA222000F05BFA072000F058FA20
:102880000A2000F055FA2E2000F052FA302000F015
:102890004FFA252000F04CFA2A2000F049FA2820AF
:1028A00000F046FA262000F043FA2E2000F040FA0D
:1028B0003A2000F03DFA002000F03AFA012000F042
:1028C00037FA032000F034FA132000F031FAE12047
:1028D00000F018FA042000F02BFA162000F028FA75
:1028E000062000F025FA0D2000F022FA2D2000F03D
:1028F0001FFA262000F01CFA232000F019FA2720E6
:1029000000F016FA272000F013FA252000F010FA44
:102910002D2000F00DFA3B2000F00AFA002000F014
:1029200007FA012000F004FA042000F001FA132055
:1029300000F0FEF93A2000F0E5F9052000F0F8F982
:10294000BDE87040292000F0DDB90000000C014016
:10295000000801402DE9FF4F81B00446DDF83C90AE
:1029600000274FEA59060090700700D0012000EBC5
:10297000D60000FB09FB203AD0B2039002980299DE
:102980004844401E83B2A019401E82B22046FFF781
:102990009BFE002043E000BFB9F10C0F24D0B9F139
:1029A000100F3FD12249039801EB0011002511F8C7
:1029B00008A0109800284FF0010000FA05F000EA86
:1029C0000A0018D020B12046049A0299FFF79DFE14
:1029D000641C0098A4B2201AB04219D10298009C3D
:1029E000401C80B2029017E00398124900EB4000AF
:1029F00001EB8001DAE708B1049800E00E9800F0DE
:102A000076F97F1CFFB2B7FBF6F006FB107060B1E1
:102A10006D1CEDB2082DCCD308F1010080B28046C8
:102A20005845B9D305B0BDE8F08F0027F4E70000A2
:102A300056530008E24E00082DE9FE4F9946DDE9A5
:102A40000D4715468A460646DDF8308010E00C2C0E
:102A500013D0102C0FD1CDF80080CDE901474B46A3
:102A60002A465146304600F08FF8301986B2AD1C28
:102A700028780028EBD1BDE8FE8FCDF80080CDE9A5
:102A800001474B462A465146304600F001F8ECE734
:102A90002DE9FF4F83B08046119D00904FF0000953
:102AA000680700D0012000EBD50000FB05FB2020CB
:102AB0000026029006EB860000EBC6013148059A1D
:102AC00010F811301278934251D100EB410001907F
:102AD000417805984078814249D104980499284466
:102AE000401E83B208EB0500401E82B24046FFF74D
:102AF000EBFD002739E00198002400EB070A12984B
:102B00009AF8021000284FF0010000FA04F001EAE0
:102B1000000115D021B14046069A0499FFF7F5FD52
:102B200008F101001FFA80F80098A8EB0000A84205
:102B300015D10498DDF80080401C80B2049012E0AA
:102B400009B1069800E0109800F0D1F809F10100F1
:102B5000C0B2B0FBF5F1814605FB119078B1641C61
:102B6000E4B2082CCBD37F1CFFB25F45C3D3761CE5
:102B70000298B6B286429DD307B0BDE8F08F4FF001
:102B80000009F0E7465900082DE9FF4F83B0804661
:102B9000119D00904FF00009680700D0012000EB64
:102BA000D50000FB05FB2520002602903248059A3F
:102BB00006EB061110F811301278934250D100EB59
:102BC00041000190417805984078814248D10498AD
:102BD00004992844401E83B208EB0500401E82B2CF
:102BE0004046FFF771FD002738E00198002400EB14
:102BF000070A12989AF8021000284FF0010000FA14
:102C000004F001EA000114D021B14046069A04996B
:102C1000FFF77BFD08F1010000991FFA80F8A8EB8F
:102C20000100A84214D104988846401C80B2049048
:102C300012E009B1069800E0109800F058F809F188
:102C40000100C0B2B0FBF5F1814605FB119078B1EF
:102C5000641CE4B2082CCCD37F1CFFB25F45C4D304
:102C6000761C0298B6B28642A0D307B0BDE8F08FBA
:102C70004FF00009F0E70000865C000870B502FB29
:102C800003F40B4402444FF6FF755B1E521E05EA27
:102C900044059BB292B2049EFFF716FD002406E0A5
:102CA0003019008840BA00F022F8A41CA4B2AC424B
:102CB000F6D370BD2DE9FE4F9946DDE90D67144648
:102CC0008A460546DDF830800CE0CDF800804B46A2
:102CD00051462846CDE90167FFF73CFE05EB56005B
:102CE00085B2641C2278002AEFD1BDE8FE8F10B5B2
:102CF0000446000A00F01CF8E0B2BDE8104000F005
:102D000017B8000070B5094D06464FF480540022F4
:102D100021462846FEF773F8304600F009F82146B0
:102D20002846BDE870400122FEF769B8000801405E
:102D300031B5094C002220212046FEF760F86423BB
:102D4000012269460548FEF7EBFB012220212046BF
:102D5000FEF755F838BD000000080140940000203F
:102D60000C490023B0F57A7F0A6802DB40F2E730B5
:102D700006E010F57A7F01DC074805E0002803DB58
:102D800050630868836370475363096840428863EF
:102D900070470000C401002019FCFFFF0C4900230C
:102DA000B0F57A7F0A6802DB40F2E73006E010F502
:102DB0007A7F01DC074805E0002803DB50630868E0
:102DC000836370475363096840428863704700001B
:102DD0007C01002019FCFFFF2DE9F04F85B0002495
:102DE0004D480094019402940394816941F02001BC
:102DF0008161816901F020010491816941F0100134
:102E00008161816901F010010491816941F004013F
:102E10008161816901F004010491816941F0080137
:102E200081618069DFF8F4B000F0080004900022AE
:102E300007215846FDF7E3FF41F2300701223946EA
:102E40003748FDF7DCFF4FF48058012241463548F2
:102E5000FDF7D5FF4FF48049002249463148FDF780
:102E6000CEFF4FF4004A002251462D48FDF7C7FF20
:102E7000072001250226CDE90005CDE90246694675
:102E80005846FDF7B3FECDE9005469462448029444
:102E9000FDF7ACFECDE900750327CDE90247694691
:102EA0001F48FDF7A3FECDF800800397CDE901543C
:102EB00069461C48FDF79AFECDF800900396CDE9CF
:102EC000015469461748FDF791FE402000901648CE
:102ED000CDE9010469465846FDF788FE4FF4786055
:102EE000CDE90004694658460294FDF77FFECDF80F
:102EF00000A00396CDE9015469460948FDF776FE26
:102F0000002211461720FDF7E3FF1720FDF7D2FF3F
:102F100005B0BDE8F08F0000001002400010014035
:102F200000080140000C0140000031100F4810B5AE
:102F30000D4901604FF48271416000218160C160E0
:102F40004FF400720161C0E90512C1610162416282
:102F500081620A21C162FEF759FA002803D0BDE858
:102F60001040FDF72FBD10BD003800409400002038
:102F700010B596B000240F941094119412941394E9
:102F80001C2168461494FDF706F9202107A8FDF7D7
:102F900002F92D482B4901604721C0E9011444F68C
:102FA0001F61C0E9031444618461FEF7EBFB08B1C3
:102FB000FDF708FD4FF480500F900FA92248FEF74F
:102FC000ADFC08B1FDF7FEFC1F48FEF79CFF08B101
:102FD000FDF7F8FC139413A91B481494FEF794FB17
:102FE00008B1FDF7EFFC6020009040F2F310CDE94E
:102FF000010403940494059400226946124806943F
:10300000FEF71BFF08B1FDF7DDFC0C2269460E48F8
:10301000FEF713FF08B1FDF7D5FC07940894099457
:103020004FF400500A94CDE90B4007A906480E94CE
:10303000FEF73FFB08B1FDF7C5FC0348FEF79CFE19
:1030400016B010BD002C0140EC00002010B58AB075
:103050000024224804940594069407940894099443
:103060000094019402944FF0804103940160472141
:10307000C0E9011442F21071C0E903148461FEF743
:1030800081FB08B1FDF79EFC4FF48050049004A929
:103090001248FEF743FC08B1FDF794FC0F48FEF719
:1030A0003EFD08B1FDF78EFC089408A90B48099471
:1030B000FEF72AFB08B1FDF785FC0120CDE90040B1
:1030C00002940422694605480394FEF796FC002802
:1030D00001D0FDF777FC0AB010BD000034010020DC
:1030E00010B58EB000240794089409940A940B94A8
:1030F0001C2168460C94FDF74EF82A4828490160C7
:103100004721C0E9011440F2E731C0E903148461AA
:10311000FEF738FB08B1FDF755FC4FF480500790DF
:1031200007A92048FEF7FAFB08B1FDF74BFC1D4844
:10313000FEF7E9FE08B1FDF745FC0B940BA9194811
:103140000C94FEF7E1FA08B1FDF73CFC6020CDE9F4
:10315000000402940022694612480494FEF76DFEB2
:1031600008B1FDF72FFC042269460E48FEF765FE04
:1031700008B1FDF727FC082269460A48FEF75DFE04
:1031800008B1FDF71FFC0C2269460648FEF755FE04
:1031900008B1FDF717FC0348FEF7EEFD0EB010BDB9
:1031A000000400407C01002010B58EB0002407947C
:1031B000089409940A940B941C2168460C94FCF71B
:1031C000EAFF2A48284901604721C0E9011440F27A
:1031D000E731C0E903148461FEF7D4FA08B1FDF7C2
:1031E000F1FB4FF48050079007A92048FEF796FBAB
:1031F00008B1FDF7E7FB1D48FEF785FE08B1FDF7B6
:10320000E1FB0B940BA919480C94FEF77DFA08B169
:10321000FDF7D8FB6020CDE9000402940022694646
:1032200012480494FEF709FE08B1FDF7CBFB042217
:1032300069460E48FEF701FE08B1FDF7C3FB082200
:1032400069460A48FEF7F9FD08B1FDF7BBFB0C2201
:1032500069460648FEF7F1FD08B1FDF7B3FB0348E8
:10326000FEF78AFD0EB010BD00080040C40100202A
:103270001CB500240E4800940C490194C0E90014C8
:1032800040F2CF21C0E902418461FEF77BFA08B128
:10329000FDF798FB0094694605480194FEF734FA5F
:1032A000002801D0FDF78EFB1CBD0000001000407F
:1032B0000C0200200C4810B50A4901604FF4165169
:1032C0004160002181600C22C160C0E9041281616B
:1032D000C161FEF7E1FF002803D0BDE81040FDF713
:1032E00071BB10BD00500040540200200C4810B5C6
:1032F0000A4901604FF4E1314160002181600C22F4
:10330000C160C0E904128161C161FEF7C5FF0028F8
:1033100003D0BDE81040FDF755BB10BD003801409B
:103320009C0200200C4810B50A4901604FF4165168
:103330004160002181600C22C160C0E904128161FA
:10334000C161FEF7A9FF002803D0BDE81040FDF7DA
:1033500039BB10BD00440040E40200200C4810B509
:103360000A4901604FF416514160002181600C222E
:10337000C160C0E904128161C161FEF78DFF0028C0
:1033800003D0BDE81040FDF71DBB10BD0048004054
:103390002C030020FEE7000010B51448FEF78CFA5D
:1033A00000211248FEF7DEFD04211048FEF7DAFD89
:1033B00008210E48FEF7D6FD0C210C48FEF7D2FD81
:1033C0000B48FEF779FA00210948FEF7CBFD0421EE
:1033D0000748FEF7C7FD08210548FEF7C3FDBDE815
:1033E00010400C210248FEF7BDBD0000C4010020C2
:1033F0007C01002030B54FF47A74621ED5436B1CFB
:10340000A14201DB114602E0A94200DC1946A042BC
:1034100001DB104602E0A84200DC1846144C0023F1
:10342000144A2568002907DBE96325682B641568C1
:10343000E96311680B6407E0EB632568494229647E
:103440001568EB63156829642168002807DB486369
:1034500021688B63116848631068836330BD4B63D8
:1034600021684042886311684B631168886330BDEE
:10347000C40100207C010020FEE7000010B50949CE
:103480004FF41674884207DA61422046FFF7B2FF14
:1034900040F22620FDF778FB20462146BDE810408B
:1034A000FFF7A8BF0000C841704700000C49002387
:1034B000B0F57A7F0A6802DB40F2E73006E010F5EB
:1034C0007A7F01DC074805E0002803DBD063086849
:1034D00003647047D3630968404208647047000082
:1034E0007C01002019FCFFFF0C490023B0F57A7F16
:1034F0000A6802DB40F2E73006E010F57A7F01DC73
:10350000074805E0002803DBD063086803647047C0
:10351000D36309684042086470470000C40100207A
:1035200019FCFFFFF8B515460E460B4600920446FF
:103530000122022100F010F840B933460022802118
:103540002046009500F008F8002804D0606D40F097
:10355000200060650320F8BD2DE9F8431E46914622
:1035600088460446089DFDF74FFC401B351AFDF7C1
:103570004BFC074625480068C0F3CB30684338E071
:10358000701C37D0FDF740FCC01BA84203D215B118
:10359000009860B32CE02068416821F0E0014160B0
:1035A0006068B0F5827F0BD1A068B0F5004F02D003
:1035B000B0F5806F04D12068016821F040010160FE
:1035C000A06AB0F5005F09D12068016821F40051BC
:1035D00001602068016841F400510160012084F815
:1035E0005100002084F850000320BDE8F883002536
:1035F000401E00902068816838EA010004D0002154
:103600004945BDD10020F0E70121F9E7180000206D
:1036100010B50548FEF750F903480068C16841F04D
:103620000101C16010BD00000C02002070470000C5
:1036300003480179012902D18168491C81607047E2
:10364000AC03002010B50C4C207908B1E0680CE008
:10365000A0684FF4AA714843FCF730FF0022074BE3
:10366000FCF7BDFEFCF763FFE0600549884201DD21
:103670000448E06010BD0000AC03002000409F4003
:103680000000C8430000BE4370B5144C144E4FF404
:1036900080452068401C2060012804D1294630461E
:1036A000FDF7A0FB18B12068032802D007E0012233
:1036B0000DE029463046FDF795FB012806D020682D
:1036C00041F27071884208D900202060002229460A
:1036D0003046BDE87040FDF792BB70BDAC030020E2
:1036E000000C014010B50848FEF7E6F80021064836
:1036F000FEF738FC0C210448FEF734FC5A21BDE8E3
:103700001040084600F002B8EC0000202DE9F04718
:103710008A46FCF7D3FE1B4FDFF86C803A464346DF
:10372000FCF7EBFDDFF8649000224B46FCF73EFD12
:10373000FCF7D1FE80B240F6C4144FF4FA75A042F3
:1037400001D9204602E0A84200D22846104E316836
:1037500048635046FCF7B2FE3A464346FCF7CDFDBF
:1037600000224B46FCF722FDFCF7B5FE80B2A042DA
:1037700001D9204602E0A84200D2284631680864F8
:10378000BDE8F0878EE3388EE338264000407F4066
:10379000EC00002004490888401C08800349088880
:1037A000401C0880FDF736BB00000020020000200E
:1037B00030B58FB028216846FCF7EDFC14210AA82B
:1037C000FCF7E9FC01210804CDE900100024029473
:1037D00002250491CDE907504FF4E01009906846A6
:1037E000FDF784FC08B172B6FEE70F20CDE90A05AB
:1037F0004FF48060CDE90C4002210AA80E94FDF739
:1038000099FB002801D072B6FEE70FB030BD7047BB
:1038100070B5164C20680169154DC943C90705D11B
:10382000891E016101202880FEF7A4FE206801693D
:10383000C943490714D46FF004010161288878B99D
:103840004FF08040836B0C4A0A4C118824F81130E9
:10385000491C118000214162016A81F0200101624E
:10386000BDE870400148FEF7EFB9000034010020C8
:1038700026000020BC030020240000200148FEF7A1
:10388000E3B900000C020020F0B50268204C214D85
:10389000214E224F224B4FF0804CA04209D098423B
:1038A00007D0604505D0A84203D0B04201D0B8424D
:1038B00004D122F0700E4A6842EA0E02A04209D0FA
:1038C000984207D0604505D0A84203D0B04201D04D
:1038D000B84203D122F44075CA682A434D6922F0E8
:1038E00080022A4302608A68C2620A688262A04239
:1038F00001D0984201D10969016301214161016947
:10390000C90703D0016921F001010161F0BD000088
:10391000002C01400004004000080040000C004062
:103920000034014010B501F01F030121046A9940E1
:103930008C430462016A9A401143016210BD10B5C4
:10394000846842EA032224F47F440A4322438260CB
:1039500010BD826822F070020A4342F007018160C4
:1039600070470000F0B5036A026A22F001020262A9
:1039700042688469124E24F073050C682C4323F0CE
:1039800002058B682B430D4DA84201D0B04205D1F2
:1039900023F00807CB683B4323F00403A84201D07F
:1039A000B04205D14D6922F4407215438A692A4319
:1039B00042608461496841630362F0BD002C0140AC
:1039C00000340140F0B5026A036A23F01003036279
:1039D000436884690D6824F4E64444EA05248D684C
:1039E00022F0200242EA05120F4D104EA84201D0EB
:1039F000B04206D1CF6822F0800242EA071222F0DC
:103A00004002A84201D0B04207D14D6923F440637F
:103A100043EA85038D6943EA85034360846149680D
:103A200081630262F0BD0000002C014000340140BF
:103A3000F0B5026A036A23F4807303624368C469C1
:103A400022F4007224F073050C68124E2C438D682A
:103A500042EA05220E4DA84201D0B04206D1CF68FD
:103A600022F4006242EA072222F48062A84201D0D6
:103A7000B04207D14D6923F4405343EA05138D69E1
:103A800043EA05134360C4614968C1630262F0BD43
:103A9000002C01400034014030B5046A026A22F46F
:103AA000805202624268C3690D6823F4E64343EA28
:103AB00005238D6824F4005444EA0534084DA842D7
:103AC00002D0084DA84204D14D6922F4804242EA56
:103AD00085124260C36149680164046230BD000020
:103AE000002C01400034014010B5036A046A24F040
:103AF00001040462846924F0F00444EA021423F00F
:103B00000A020A438461026210BD000070B5056AB2
:103B1000046A24F0010404628469124EB0420ED09B
:103B2000114EB0420BD0B0F1804F08D00F4EB042D2
:103B300005D00F4EB04202D00E4EB04203D124F059
:103B40000304144301E044F001041A0724F0F004D4
:103B500044EA126225F00A0301F00A011943826166
:103B6000016270BD002C014000340140000400409F
:103B700000080040000C004010B5036A046A24F0FD
:103B800010040462846923F0A00324F4704444EA1E
:103B9000023243EA01118261016210BD30B5046A4C
:103BA000056A25F010050562856925F4407545EA2A
:103BB000022222F470454FF6FF7202EA033224F02B
:103BC000A0032A43A02404EA01111943826101627F
:103BD00030BD8A1A824204DA1944814201D9012097
:103BE0007047002070470000104830B40368186820
:103BF0000F49C04382060F480BD44A68047D025522
:103C0000027D521CD2B21424B2FBF4F504FB15223F
:103C100002751A68D243D20603D40A6849680121A2
:103C2000417530BC0148FEF701BA00005402002083
:103C300000500040BC0B002010B5406A0021C18537
:103C4000C184FEF7F2F910BD01680C3151E8002F74
:103C500022F4907241E80023002BF5D10168143161
:103C600051E8002F22F0010241E80023002BF5D19A
:103C7000016B012909D101680C3151E8002F22F0B4
:103C8000100241E80023002BF5D1202180F84210DA
:103C900000210163704708B590F84210222901D035
:103CA000022008BD82684FF480539A4201D1016915
:103CB00021B1816A9A421BD04AB10AE00268816A46
:103CC0005268C2F308020A80816A891C08E002690E
:103CD00072B10268526802F07F020A70816A491C60
:103CE0008162C18D491E0904090CC18503D01BE006
:103CF00002685268F1E70168CA6822F02002CA60CF
:103D00000168CA6822F48072CA6001684A6922F0B8
:103D100001024A61202180F8421000214163026BB8
:103D2000012A03D0FEF7BCFB002008BD0163016837
:103D30000C3151E8002F22F0100241E80023002B43
:103D4000F5D101680A68D20602D50A68496800916F
:103D5000818DFEF769F9E7E770B5044600680169EF
:103D6000E26821F44051114301612169A0680843D0
:103D7000616908432168CA6841F20C639A430243AF
:103D8000CA6020684169A26921F440711143416110
:103D90001E492068884202D1FDF772F901E0FDF763
:103DA0005FF900EBC00101EB001260686421800044
:103DB000B2FBF0F3B3FBF1F36FF018067343B2FB01
:103DC000F0F5B2FBF0F605EB8305322303EB0515A6
:103DD000B5FBF1F5B6FBF1F605F0F00505EB0615C0
:103DE000B2FBF0F6B2FBF0F0B0FBF1F06FF01802AE
:103DF000504306EB800003EB0010B0FBF1F02168AC
:103E000000F00F002844886070BD000000380140B9
:103E10002DE9F843984617460D460446089E24E0CF
:103E2000701C22D0FCF7F0FFA0EB0800B0421AD8BB
:103E3000CEB12068C168490717D5802D15D0402D17
:103E400013D00168C94309070FD4016800254068F1
:103E500000902046FFF7F8FE0820606484F8405088
:103E60000120BDE8F8830320FBE72068006835EAFD
:103E7000000004D00020B842D2D00020F1E7012099
:103E8000F9E70000124830B400680068114BC043E5
:103E9000810611480BD41968104C0278A154521CA9
:103EA000D1B20A22B1FBF2F402FB141101700C49E9
:103EB00009680968C943C90605D40649091F096884
:103EC00019680121417030BC0548FEF7AFB8000009
:103ED0005402002004380140080000207403002030
:103EE0009C020020114830B402681068104BC04397
:103EF000810610480BD41968047D0155017D491CC9
:103F0000C9B21424B1FBF4F504FB15110175116855
:103F1000C943C90605D40649091F09681968012162
:103F2000417530BC0148FEF781B80000E402002072
:103F300004440040BC0B002005480168CA6842F0F8
:103F40002002CA600068C16841F01001C16070477A
:103F5000E4020020114830B402681068104BC043DE
:103F6000810610480BD41968047D0155017D491C58
:103F7000C9B21424B1FBF4F504FB151101751168E5
:103F8000C943C90605D40649091F096819680121F2
:103F9000417530BC0148FEF749B800002C030020F1
:103FA00004480040D20B002005480168CA6842F06E
:103FB0002002CA600068C16841F01001C16070470A
:103FC00054020020FEE700002DE9F0413048417D19
:103FD000012951D10178AA2902D14178552901D06E
:103FE0002CA00CE090F802C0C67802790CEB060118
:103FF000491E11444079C9B2884208D028A000F077
:10400000B5F8BDE8F04116212148FCF7C4B82748AF
:1040100027494FF416746542B0F90030B1F9002019
:104020000027BCF10D0F1DD2DFE80CF0070A0C0EC3
:10403000111C1C1C1C1C141C180007800F8011E094
:10404000048002E0058003E005800C800AE0048023
:104050000D8007E0643B0380643A02E06433038030
:1040600064320A801348761F052E05D2DFE806F079
:104070000306080A0C000770BDE8F081012104E086
:10408000022102E0042100E003210170F4E70000B6
:10409000D20B0020D6A1CDB7B3F6B4ED0D0A0000C7
:1040A000D0A3D1E9B3F6B4ED0D0A00002000002042
:1040B000220000208A00002005480168CA6842F0FA
:1040C0002002CA600068C16841F01001C1607047F9
:1040D0002C03002070B5FCF777FC234D224AC83D25
:1040E0004FF448744FF4FA7320283CD2DFE800F014
:1040F00010241E24123B1E18333B3B3B333B12184B
:10410000153B3B3B3B3B3B3B153B3B3B273B273678
:10411000104624E04FF4167021E01146204607E0D7
:104120006420FCF731FD294620460DE06421184645
:10413000FCF71AFC64200AE021461046F8E76420E8
:10414000FCF722FD21462846FCF70EFCC820BDE8FE
:104150007040FCF719BD19466420E9E70020BDE86E
:104160007040FCF7F2BB70BD70FEFFFF0FB4054B53
:1041700010B503A9044A029800F0FEF810BC5DF8DF
:1041800014FB0000194B0008900000200FB4084BEE
:1041900010B504A902AA039800F0EEF8044602A99B
:1041A000002000F080FC204610BC5DF814FB0000ED
:1041B000A74A00080907090E002804DB00F1E020E7
:1041C00080F80014704700F00F0000F1E02080F844
:1041D000141D704702E008C8121F08C1002AFAD156
:1041E00070477047002001E001C1121F002AFBD177
:1041F000704700002DE9FF5F82B00021DDE9043047
:10420000020DDDF840B0034318D044F61050A2F27E
:10421000FF3242431514119801281FD0A5EB0B0063
:10422000401C5FEA000A4FF000064E4FDFF838915D
:10423000B046504615D5CAF1000413E01198012488
:104240004AA3012801D16FEA0B010298119AC0E933
:104250000031C0E9024206B0BDE8F09FCBF100009A
:10426000DFE704460021404A491842EB0450CDE9FB
:10427000001012E0E00707D032463B464046494670
:10428000FCF73BF88046894632463B4610461946C5
:10429000FCF733F806460F466410002CEAD1DDE93E
:1042A0000401DDE90023BAF1000F06DAFCF725F876
:1042B00042464B46FCF721F805E0FCF790F84246F1
:1042C0004B46FCF78CF804460E460022284BFCF7C0
:1042D0005FFA03D84FF0FF30014607E00022254B7C
:1042E00020463146FBF762FFFCF739FA102409E05B
:1042F000002C0ADB0A220023FCF74BF9039B303227
:104300001A55641E50EA0102F2D1641C039AC4F1EA
:1043100011031444119A012A03D0012208430DD13C
:104320000AE0084304D000204FF0110B119072E70F
:10433000A3EB0B056D1E0DE05B4504DD4FF00002A5
:1043400005F1010504E003DA4FF00002A5F10105D3
:10435000002AECD002981199C0E90231C0E9004569
:1043600079E70000000014400000F03F300000003A
:104370000000F0430000E03F2DE9FF4F95B09B4661
:104380008946064600250FE2252877D100242746D6
:10439000F84A0121059400E0044316F8013F203B50
:1043A00001FA03F01042F7D130782A2811D06FF0CB
:1043B0002F033078A0F13002092A16D8059A44F06C
:1043C000020402EB820203EB42021044761C0590C9
:1043D000EFE759F8042B0592002A03DA504244F41F
:1043E0000054059044F00204761C30782E2816D133
:1043F00016F8010F44F004042A280DD06FF02F02A4
:104400003078A0F13003092B09D807EB870302EBC2
:104410004303C718761CF3E759F8047B761C307801
:104420006C280FD006DC4C2817D068280DD06A28DD
:1044300014D104E0742810D07A280FD10DE044F490
:1044400000140AE044F4801401E044F4401472784B
:10445000824202D104F58014761C761C30786628DE
:104460000BD013DC582877D009DC002875D04528FC
:10447000F6D04628F4D047281AD19DE118E06328E9
:1044800035D0642879D0652812D195E1702873D091
:1044900008DC6728F1D069286FD06E280DD06F280E
:1044A00006D1B5E073282CD0752875D0782874D043
:1044B0005A46179990476D1C75E1C4F302500228C3
:1044C00009D003280DD0D9F8001004280DD00D60B4
:1044D00009F1040967E1D9F80010EA17C1E90052AF
:1044E000F6E7D9F800100D80F2E70D70F0E719F843
:1044F000041B8DF8001000208DF80100EA46012011
:1045000003E059F804AB4FF0FF3061074FF00001B2
:1045100002D40DE008F101018846B9420FDA804566
:10452000F8DB1AF808100029F4D108E008F10101BD
:1045300088468142FADB1AF808100029F6D105985E
:104540005B46A0EB080721463846179A00F094FA1C
:10455000284400EB080507E04DE029E10DE01AF8DA
:10456000010B5A4617999047B8F10108F7D25B46FC
:1045700021463846179A13E142E00A220092C4F31A
:1045800002524FF0000A022A08D059F804CB032A3D
:104590004FEAEC710AD00DE029E02AE009F10701A9
:1045A00021F00702F2E802C1914609E00FFA8CFC03
:1045B0004FEAEC71042A03D14FFA8CFC4FEAEC71FC
:1045C000002907DA0A460021DCF1000C61EB020148
:1045D0002D2202E0220504D52B228DF80420012291
:1045E00003E0E20701D02022F7E7904659E00A21D4
:1045F00002E010220DE010214FF0000A00910BE0C4
:1046000010224FF0000A44F004040827009203E04F
:1046100008224FF0000A0092C4F30252022A05D089
:1046200059F804CB0021032A08D009E009F1070159
:1046300021F00702F2E802C1914605E01FFA8CFC66
:10464000042A01D10CF0FF0C4FF00008220728D5F6
:10465000702806D0009B83F0100353EA0A0305D0AC
:104660000EE040228DF80420012208E05CEA0102FD
:1046700006D030228DF804208DF8050002229046E5
:10468000009B83F0080353EA0A030AD15CEA0102A3
:1046900001D1620705D530228DF804204FF00108C2
:1046A0007F1E582804D034A003900EA802900DE07D
:1046B00036A0F9E753466046009AFBF76AFF844646
:1046C0000398825C0298401E029002705CEA01002E
:1046D000F0D1029806A9081A00F1200A600702D555
:1046E00024F4803400E00127574502DDA7EB0A00DF
:1046F00000E0002000EB0A01009005984144401AB8
:104700000590E00306D45B462146179A059800F011
:10471000B3F90544002706E001A85A46C05D179981
:1047200090476D1C7F1C4745F6DBE0030CD55B46CC
:104730002146179A059800F09FF9054404E03020BF
:104740005A46179990476D1C0099481E0090002901
:10475000F5DC08E0029802995A460078491C02915B
:10476000179990476D1CBAF10001AAF1010AF1DC1A
:1047700065E1000009280100303132333435363725
:10478000383961626364656600000000303132339D
:10479000343536373839414243444546000000003D
:1047A00000F058F90544761C307800287FF4ECAD11
:1047B00019B02846BDE8F08F620700D4062709F13A
:1047C000070222F0070CFCE80223E14603F0004850
:1047D0005FEA080C02D00FF2702C0DE05FEA045C77
:1047E00002D50FF2682C07E05FEAC47C02D00FF21A
:1047F000602C01E0AFF2700C4FF0FF3823F0004363
:10480000CDF850C065280CD006DC452809D04628D4
:104810001DD047283DD13DE0662818D067287ED1BD
:1048200038E00021112F01DB112000E0781CCDE9D8
:10483000000106A90EA8FFF7DDFCDDE90F010E9AC5
:1048400003910021009207F1010A04914DE04FF01D
:1048500000400097CDE9011006A90EA8FFF7CAFC99
:10486000DDE90F0203920E9B11990022DDF80CA0E6
:104870000093049211B9791C00EB010AB7EB0A000E
:1048800004D4C0F1FF3007F1010A0490AAEB07003D
:10489000019044E0012F00DA01270021112F01DDF2
:1048A000112000E03846CDE9000106A90EA8FFF767
:1048B000A1FCDDE90F010E9A039100210491009201
:1048C000BA4621070CD40399514500DA8A46BAF159
:1048D000010F05DD009AAAF10101515C302908D0D1
:1048E000B84202DA10F1040F06DA0121CDE9011015
:1048F00015E0AAF10101E9E7002805DC049901446B
:104900000491AAEB000102E0411C514500DD8A46FA
:104910000499401A401C01904FF00040029020077B
:1049200004D40198504501DBCDF8048000208DF8B7
:104930004F0002980DF14F07B0F1004F25D02B200A
:104940000E9002984FF0020800280CDA40420290C4
:104950002D200E9007E00A210298FBF704FE30316B
:10496000029007F8011DB8F10001A8F10108F2DC7E
:1049700002980028EFD1791E0E980870307800F068
:10498000200040F0450007F8020D12A8C01B00F1FE
:1049900007081498007800B1012000EB0A01019883
:1049A00001EBE07105984144401A401E0590E00378
:1049B00006D45B462146179A059800F05DF8054439
:1049C0001498007818B15A46179990476D1CE00367
:1049D00024D55B462146179A059800F04DF805440A
:1049E0001CE00498002807DBDDE90301884203DDB1
:1049F0000098405C179901E0179930205A4690477B
:104A0000049805F10105401C04900198401E019096
:104A100004D12E205A46179990476D1CBAF1000117
:104A2000AAF1010ADDDC05E017F8010B5A461799D7
:104A300090476D1CB8F10001A8F10108F4DC5B4659
:104A40002146179A0598ABE62D0000002B000000C8
:104A5000200000002DE9F041044600251E461746BF
:104A6000880404D405E039462020B0476D1C641E3C
:104A7000F9D52846BDE8F0812DE9F041044600252E
:104A80001E469046C80301D5302700E02027880441
:104A900004D505E041463846B0476D1C641EF9D583
:104AA0002846BDE8F0810A68531C0B6010707047FF
:104AB00000EB8100C26070472DE9F0410F461E46B1
:104AC000154604462C21FBF766FBA07820F0F00089
:104AD0008030A070A760E07845B120F0800000BF72
:104AE00065F38610E0702671BDE8F08140F080002B
:104AF000F6E70000074A11680B4605E0814202D143
:104B00004FF0FF307047896A0029F7D18362106047
:104B1000002070471C00002038B504468DF80000C6
:104B20004FF47A73012269460248FDF7BAFC204629
:104B300038BD00009C02002080780009704700000A
:104B400010B5FFF7F9FF032805D103490878401C89
:104B500000F00100088010BD0600002090B0FCF7B6
:104B600061F9FEF725FEFEF737F9FEF7BFFBFEF70A
:104B7000DDF9FEF719FBFEF7B3FAFEF779FBFEF756
:104B800065FAFEF797FBFEF7F3F9FEF7E7FBFEF792
:104B9000C9FBFBF727FEFDF7D9FDFEF7FDFBFEF78E
:104BA00037FDFDF7D1FCFFF7FFF9FFF7C5F9FEF779
:104BB00099FDFFF781FA4FF6FF750021A0238022AF
:104BC00008460095FDF7ACFD00244FF01008009555
:104BD0004FF4784ACDE901844646574653468CA2A5
:104BE00021462046FDF728FF0095CDE901643B46AC
:104BF0008BA210210020FDF71FFF0095CDE9016475
:104C00003B4689A220210020FDF716FF0095CDE943
:104C100001643B4686A230210020FDF70DFF009580
:104C2000CDE901643B4685A240210020FDF704FF49
:104C30000095CDE901643B4683A250210020FDF799
:104C4000FBFE8448816941F001018161806900F0C7
:104C5000010000908048416821F0E06141F000715E
:104C60004160342103A8FBF796FADFF8F091DFF8F2
:104C7000F0B17C4F0526B88850B14FF400417A4816
:104C8000FCF7B5F81420FBF77FFFB888401EB8800A
:104C900099F8000034285ED006DC312813D0322881
:104CA0002FD0332864D138E03C2807D03E285FD18C
:104CB000761C76B2052E5BDD052680E0002E5ED0E8
:104CC000761E76B254E00095CDE90184534667A282
:104CD00050214020FDF7B0FEFBF7A6FDFBF70EFECE
:104CE000BBF8000081B26448008880B2FEF70EFD78
:104CF0006248B0F900106248B0F90000FEF77AFB94
:104D000036E00095CDE9018453465EA25021402053
:104D1000FDF792FEFFF7DEF92AE00095CDE9018468
:104D200053465BA250214020FDF786FEFFF74CF969
:104D3000FBF7E4FD5148B0F900105148B0F900000C
:104D4000FEF758FBBBF8000081B24B48008880B2E8
:104D5000FEF7DCFC0CE00095CDE9018453464FA240
:104D600050214020FDF768FEFEF76CFCFEF786FB45
:104D7000052E24D2DFE806F0031C1C1C1C000021B9
:104D8000A023802208460095FDF7CAFC0095CDE9D6
:104D900001840021534635A20846FDF74DFE4248E6
:104DA00000907423642210210020FDF767FF06E0C5
:104DB0000021A023802208460095FDF7B1FC388829
:104DC000C82804D901213948FCF711F83C807888BB
:104DD000C8287FF650AFFEF735FCFBF795FB02467F
:104DE0000B4633A103A8FFF7D1F9502380224021BD
:104DF00018460095FDF794FC0095CDE901845346D3
:104E000003AA40215020FDF755FF7C8033E70000C6
:104E1000BAD3C4CFC0EDB9A4B4F3D1A70000000049
:104E2000CDF4C8F0B2A90000B0BDB6B000000000DB
:104E3000B5DACAAEC8FDD7E900000000B3ACC9F9C5
:104E4000B2A8BEE0C0EB0000B5B1C7B0C4A3CABDF4
:104E50000000000000100240000001402800002077
:104E60008E0000200000002000080140C0B6D1C024
:104E7000C4A3CABD000000008C0000202200002056
:104E800020000020D1B0BCA3C4A3CABD0000000014
:104E9000BCE0BFD8C4A3CABD00000000B1DCD5CFC0
:104EA000C4A3CABD000000007061000800100140EA
:104EB000252E3266000000000102020304050607E9
:104EC00008090A0B0C0D0E0F101000000000000066
:104ED00000000102030406070809000000000102A7
:104EE00003040000000000000000000000000000BB
:104EF0000404040404000004000014140A00000068
:104F000000000000000000000A0A1F0A0A1F0A0A27
:104F1000000000040E1505060C14150E0400000018
:104F200012150D152E2C2A1200000000040A0A3654
:104F30001515291600000202010000000000000003
:104F40000000100808040404040408081000020407
:104F50000408080808080404020000000004150EF4
:104F60000E150400000000000008083E08080000BC
:104F7000000000000000000000000202010000002C
:104F80000000003F000000000000000000000000E2
:104F900000000002000000201010080804040202B3
:104FA000010000000E1111111111110E000000007E
:104FB000040604040404040E000000000E1111088D
:104FC0000402011F000000000E11100C1010110E41
:104FD00000000000080C0C0A091F081C000000005B
:104FE0001F01010F1110110E000000000C12010D25
:104FF0001311110E000000001E1008080404040420
:10500000000000000E11110E1111110E0000000021
:105010000E1111191610090600000000000004000E
:105020000000000400000000000000040000000474
:105030000400000010080402020408100000000030
:1050400000003F003F0000000000000002040810C4
:1050500010080402000000000E11110804040004EE
:10506000000000001C22292D2D1D221C0000000024
:1050700004040C0A0A1E1233000000000F12120E64
:105080001212120F000000001E1101010101110E89
:10509000000000000F1212121212120F0000000086
:1050A0001F120A0E0A02121F000000001F120A0E31
:1050B0000A020207000000001C1201013911120C43
:1050C000000000003312121E121212330000000002
:1050D0001F0404040404041F000000003E08080824
:1050E000080808080907000037120A060A121237D2
:1050F00000000000070202020202223F000000003E
:105100003B1B1B1B15151535000000003B12161626
:105110001A1A1217000000000E1111111111110EB0
:10512000000000000F12120E020202070000000031
:105130000E1111111117190E180000000F12120E86
:105140000A121237000000001E1101060810110F8C
:10515000000000001F1504040404040E00000000F9
:10516000331212121212120C000000003312120A33
:105170000A0C040400000000151515150E0A0A0A91
:10518000000000001B0A0A04040A0A1B00000000B9
:105190001B0A0A0A0404040E000000001F09080488
:1051A0000402121F00001C04040404040404040488
:1051B0001C000002020404040808081010000E0875
:1051C00008080808080808080E00040A0000000083
:1051D00000000000000000000000000000000000CF
:1051E000003F02040000000000000000000000007A
:1051F0000000000C121C123C000000030202020E10
:105200001212120E000000000000001C1202120C0C
:10521000000000181010101C1212123C00000000B8
:105220000000000C121E021C000000182404041EC2
:105230000404041E000000000000003C120C021CCC
:10524000221C00030202020E121212370000000498
:10525000040000060404040E000000080800000C0E
:1052600008080808080700030202021A0A060A13BF
:1052700000000007040404040404041F00000000EC
:105280000000000F15151515000000000000000FAC
:1052900012121237000000000000000C1212120C53
:1052A000000000000000000F1212120E02070000A2
:1052B0000000001C1212121C103800000000001B1D
:1052C00006020207000000000000001E020C101E73
:1052D000000000000004041E0404041C0000000080
:1052E0000000001B1212123C000000000000001B16
:1052F0000A0A04040000000000000015150E0A0A46
:10530000000000000000001B0A040A1B000000004F
:105310000000003312120C08040300000000001EFD
:105320000804041E000018080808080C08080808EB
:1053300018000808080808080808080808080604EB
:105340000404040804040404060016090000000014
:10535000000000000000000000000000000000004D
:105360000000000000000000000808080808080805
:1053700000001818000000486C2412000000000013
:105380000000000000000000002424247F121212FC
:105390007F12121200000000081C2A2A0A0C18288A
:1053A000282A2A1C080800000022251515152A584D
:1053B0005454542200000000000C1212120A7625E8
:1053C0002911916E00000006060403000000000091
:1053D0000000000000000040201010080808080825
:1053E00008101020400000020408081010101010CF
:1053F0001008080402000000000008086B1C1C6B69
:1054000008080000000000000000080808087F08E5
:105410000808080000000000000000000000000074
:105420000000060604030000000000000000FE006B
:10543000000000000000000000000000000000006C
:1054400000000606000000008040402020101008E8
:1054500008040402020000000018244242424242B2
:10546000424224180000000000080E08080808083E
:105470000808083E00000000003C42424220201084
:105480000804427E00000000003C424220182040F8
:105490004042221C00000000002030282424222248
:1054A0007E20207800000000007E0202021A2640C2
:1054B0004042221C0000000000382402021A26424A
:1054C0004242241800000000007E2222101008082A
:1054D0000808080800000000003C4242422418244A
:1054E0004242423C000000000018244242426458FC
:1054F0004040241C000000000000000018180000BC
:105500000000181800000000000000000008000063
:1055100000000008080400000040201008040204F5
:105520000810204000000000000000007F00000084
:105530007F0000000000000000020408102040204E
:105540001008040200000000003C424246402010C7
:105550001000181800000000001C225A555555551F
:105560002D42221C00000000000808181414243CDE
:10557000224242E700000000001F2222221E224297
:105580004242221F00000000007C42420101010152
:105590000142221C00000000001F224242424242FF
:1055A0004242221F00000000003F4212121E12124F
:1055B0000242423F00000000003F4212121E12123F
:1055C0000202020700000000003C222201010171DA
:1055D0002122221C0000000000E7424242427E429B
:1055E000424242E700000000003E080808080808A0
:1055F0000808083E00000000007C10101010101079
:1056000010101010110F0000007722120A0E0A125B
:1056100012222277000000000007020202020202AA
:105620000202427F000000000077363636362A2A12
:105630002A2A2A6B0000000000E346464A4A5252DA
:105640005262624700000000001C2241414141417A
:105650004141221C00000000003F424242423E0203
:105660000202020700000000001C224141414141AA
:105670004D53321C60000000003F4242423E121275
:10568000222242C700000000007C4242020418208F
:105690004042423E00000000007F49080808080818
:1056A0000808081C0000000000E742424242424253
:1056B0004242423C0000000000E7424222242414FF
:1056C0001418080800000000006B49494949555565
:1056D000362222220000000000E742242418181875
:1056E000242442E700000000007722221414080856
:1056F0000808081C00000000007E2120101008048B
:105700000442423F0000007808080808080808081A
:1057100008080808780000000202040408080810BD
:10572000102020204040001E1010101010101010EB
:10573000101010101E00003844000000000000008F
:105740000000000000000000000000000000000059
:105750000000000000FF000608000000000000003C
:10576000000000000000000000000000003C427843
:10577000444242FC0000000000030202021A2642DA
:105780004242261A000000000000000000384402D7
:10579000020244380000000000604040407844426B
:1057A000424264D80000000000000000003C427E3D
:1057B0000202423C0000000000F08808087E080851
:1057C0000808083E0000000000000000007C2222C3
:1057D0001C023C42423C000000030202023A4642E4
:1057E000424242E700000000000C0C00000E0808D6
:1057F0000808083E0000000000303000003820207B
:1058000020202020221E0000000302020272120A41
:105810001612227700000000000E08080808080889
:105820000808083E0000000000000000007F92927F
:10583000929292B70000000000000000003B464238
:10584000424242E70000000000000000003C4242EB
:105850004242423C0000000000000000001B2642C3
:105860004242221E0207000000000000007844426D
:105870004242447840E000000000000000774C0401
:105880000404041F0000000000000000007C42022D
:105890003C40423E0000000000000008083E0808AE
:1058A00008080830000000000000000000634242C9
:1058B000424262DC000000000000000000E74224D9
:1058C00024140808000000000000000000EB494913
:1058D0005555222200000000000000000076241828
:1058E0001818246E000000000000000000E74224A9
:1058F000241418080807000000000000007E221091
:105900000808447E000000C0202020202010202015
:1059100020202020C00010101010101010101010A7
:1059200010101010101000060808080808100808C9
:105930000808080806000C32C20000000000000041
:10594000000000000000D0C544008400FA070200F7
:10595000F3030200F2030200F2031202F203120246
:10596000D3AF0000FF010401BC00AA031202A90189
:105970000000FE0352025202FF07B4EF82008400CF
:105980008000F007870084004401440224041404CA
:105990000A00F107B5E710001000FF011101110125
:1059A000FF0111011101FF0111041004E007D7D319
:1059B0000000FC018000400020002000FF072000C4
:1059C0002000200020003800B7BD10002000FF0795
:1059D00008000800F8030802080204020402020298
:1059E000C101CFF210000800FF0701040104F9040F
:1059F000890489048904F90401040107C7B004017A
:105A00008800FF0700003E02A202BE02A202BE0200
:105A1000A20222023203BAF380037C0004000400D5
:105A2000FC0704000400F40714041204F207110434
:105A3000D7F310001000FF07100008000800F8035B
:105A40004400440042004100FC07D3D22000200063
:105A5000FF07100010000800F8030C020A020902F8
:105A6000F8030802CBD94100FA074000F8034B02C3
:105A70004A02FA03E20052014A024200FD07B6C898
:105A80004000FE071201FE071201F2010200FA03B4
:105A900012022201C2003907CDA38800F8070400D2
:105AA000E4032602E5030400F4071404E40384007D
:105AB000C400BEE00000DE0752005200DE074804CA
:105AC00048045A04CA074A005A00C707C0EB20001E
:105AD000FF07880072028A02FE032000FF071104FC
