:020000040800F2
:100000006004002045010008A50B0008450A00080F
:10001000990A000839070008E51A000800000000E6
:10002000000000000000000000000000310D00088A
:100030003D07000800000000190C0008E50E00084C
:100040005F0100085F0100085F0100085F01000810
:100050005F0100085F0100085F0100085F01000800
:100060005F0100085F0100085F0100085F010008F0
:100070005F0100085F0100085F0100085F010008E0
:100080005F0100085F0100085F0100085F010008D0
:100090005F0100085F0100085F0100085F010008C0
:1000A0005F0100085F0100085F0100085F010008B0
:1000B0001D1200085F010008611200085F010008BE
:1000C0005F0100085F0100085F0100085F01000890
:1000D0005F0100085F010008D11800085F010008F7
:1000E0005F0100085F0100085F0100085F01000870
:1000F0005F0100085F0100085F0100085F01000860
:100100005F0100085F0100085F0100085F0100084F
:100110005F0100085F0100085F0100085F0100083F
:100120005F0100085F0100085F0100085F0100082F
:10013000DFF80CD000F0E8FA004800470925000875
:10014000600400200648804706480047FEE7FEE7B7
:10015000FEE7FEE7FEE7FEE7FEE7FEE7FEE7FEE777
:100160007D0F000831010008D2B201E000F8012B38
:10017000491EFBD270470022F6E710B513460A4627
:1001800004461946FFF7F0FF204610BD2DE9FE4F4B
:10019000804681EA0300C00F0C46009021F0004128
:1001A00023F00045B8EB0200A94105D240462146A4
:1001B00090461C460B46024623F00040104347D0B1
:1001C000270DC7F30A00C3F30A510290401A0190A9
:1001D00040286BDAC3F3130040F4801B009892466A
:1001E00020B10023D2EB030A63EB0B0B01985946B5
:1001F000C0F14002504600F059F906460D465046FF
:100200005946019A00F071F910EB08006141002491
:1002100087EA115284EAE7731A4340D0009A62B326
:10022000019A012A4FEA075215DC001B61EB02011B
:100230004FF0004202EA0752CDE90042001C41F5AE
:10024000801132462B4600F071F903B0BDE8F08F03
:1002500040462146F9E7001B61EB0201001C41F515
:10026000801300185B412018A2F5001747EB03012B
:1002700040EAD570B6196D4111E06D084FEA3606B7
:1002800045EAC0754FEA0752001B61EB0201001CF2
:1002900041F5801149084FEA3000001951413246BA
:1002A0002B4603B0BDE8F04F00F031B900980122B1
:1002B00040000023D0EB020263EBE073009821467C
:1002C0004FEAE074B8EB000061EB0401E9E783F06A
:1002D00000435BE781F0004158E72DE9FE4F81EADA
:1002E000030404F0004421F0004100944FF0000B9F
:1002F00023F0004350EA01045ED052EA03045BD0CD
:10030000C3F30A54C1F30A552C44A4F2F334019404
:10031000A0FB0254C1F3130141F48011C3F3130392
:1003200043F4801301FB024400FB034E840A970A46
:1003300044EA815447EA8357A4FB076802958D0A73
:1003400005FB07854FEA932C04FB0C542705029DFF
:100350004FEA065847EA1637B5EB08056EEB070C6F
:10036000870E920E47EA811742EA8312A7FB020129
:10037000B6EB0B0164EB00042B0D43EA0C335E1863
:1003800044EB1C50DA465146E7FB0201C5F3130467
:100390004FEA0B3343EA14534FEA0432019C43EA19
:1003A0000603A4F10C040294009CCDE900B400F013
:1003B000BDF803B0BDE8F08F00200146F9E70EB5A7
:1003C000C10F80EAE0700844CA07002140F23343BD
:1003D0008DE80E000A460B4600F0A8F803B000BDF9
:1003E00070B5C1F30A5201F000450024C1F31301B6
:1003F00040F2FF3341F480119A4201DA002070BDCF
:1004000040F233439A42A2F2334203DC524200F0FC
:100410005CF800E090402C43F1D0404270BD30B514
:100420000B46014600202022012409E021FA02F5B2
:100430009D4205D303FA02F5491B04FA02F528444C
:10044000151EA2F10102F1DC30BD2DE9F05F054679
:10045000002092469B4688460646814640241BE083
:10046000284641464746224600F02FF853465A4652
:10047000C01A914110D311461846224600F016F8D2
:100480002D1A67EB01084F4622460120002100F09B
:100490000DF817EB00094E41201EA4F10104DFDC2A
:1004A000484631462A464346BDE8F09F202A04DBF1
:1004B000203A00FA02F1002070479140C2F1200377
:1004C00020FA03F3194390407047202A04DB203AB6
:1004D00021FA02F00021704721FA02F3D040C2F164
:1004E00020029140084319467047202A06DBCB17AB
:1004F000203A41FA02F043EAE07306E041FA02F3DF
:10050000D040C2F12002914008431946704710B50F
:10051000141E73F1000408DA401C41F10001921826
:100520005B411A4301D120F0010010BD2DE9F04DCF
:1005300092469B4611B1B1FA81F202E0B0FA80F224
:1005400020329046FFF7B2FF04460F4640EA0A0009
:1005500041EA0B0153465A46084313D0114653EA69
:10056000010019D0C8F140025046FFF7AEFF054622
:100570000E46504659464246FFF798FF084305D0BD
:10058000012004E020463946BDE8F08D00200543F7
:1005900046EAE0762C4337430A986305E40AA0EB69
:1005A00008000022FD0A44EA47540A3002D5002020
:1005B0000146E9E7010510196941DDE9084500191F
:1005C0006941BDE8F04DA2E72DE9F04D81EA030451
:1005D00004F0004B21F0004514464FF0000A23F0D0
:1005E000004150EA050220D054EA01021DD0C5F3B3
:1005F0000A570246C5F31303C1F31300C1F30A56A9
:1006000040F4801543F48013A7EB0608101BD64670
:1006100008F2FD3873EB050002D308F1010801E090
:1006200092185B41B8F1000F03DA00200146BDE8E3
:10063000F08D00204FF48011064684460EE0171B13
:1006400073EB050705D3121B63EB050306434CEA66
:10065000010C49084FEA300092185B4150EA01074B
:10066000EDD152EA030012D082EA040083EA0501C8
:10067000084305D0101BAB4106D20122002306E03F
:1006800000224FF0004302E06FF0010253101AEB1A
:1006900006004CEB085110EB0A0041EB0B01BDE8E2
:1006A000F04DFFF734BFC1F30A52C1F3130140F21A
:1006B000FF3341F480119A4202DA0020014670476C
:1006C00040F233439A42A2F2334202DC5242FFF735
:1006D000FCBEFFF7EBBE000030B5041E71F1000454
:1006E00004DB4FF00044404264EB0101141E73F13F
:1006F000000405DB1C464FF00043524263EB040349
:10070000994208BF904230BD064C074D06E0E068B4
:1007100040F0010394E8070098471034AC42F6D348
:10072000FFF70AFD682500088825000810B54FF47A
:10073000165001F015FA10BD00BFFEE7704710B566
:1007400000F004F800F056F810BD000000B587B0C6
:100750000121084600F062FA0121052000F06EFA3E
:1007600004208DF80F000320ADF80C008DF80E006A
:1007700003A91F4800F090F804A801F03BF80020FE
:10078000ADF81600ADF812004FF6FF70ADF814008A
:100790000020ADF8100004A94FF0804000F0D8FF11
:1007A00000214FF0804000F07DFD00231A46032118
:1007B0004FF0804000F0A3FD684600F029FE694636
:1007C0004FF0804000F0CEFD0121880700F076FD5B
:1007D00001221146900700F024FE00214FF08040D6
:1007E00000F088FF0121880700F06EFD07B000BD12
:1007F0000008014000B587B00121042000F00EFA86
:100800000121092000F01AFA04208DF80F00C02001
:10081000ADF80C0003208DF80E0003A91C4800F071
:100820003BF804A800F0E6FF0020ADF81600ADF894
:1008300012004FF6FF70ADF814000020ADF8100064
:1008400004A9144800F084FF0021124800F02AFD9A
:1008500000231A4603210F4800F051FD684600F0BE
:10086000D7FD69460B4800F07DFD0121094800F0E5
:1008700025FD01221146074800F0D3FD002105485F
:1008800000F038FF0121034800F01EFD07B000BD55
:10089000000C0140000800402DE9F041024600250F
:1008A0000026002000230024002791F803C00CF04C
:1008B0000F0591F803C00CF0100CBCF1000F03D031
:1008C00091F802C04CEA050591F800C0BCF1000F98
:1008D00031D0146800202BE04FF0010C0CFA00F32B
:1008E000B1F800C00CEA03069E4220D183004FF00D
:1008F0000F0C0CFA03F7BC4305FA03FC4CEA0404A2
:1009000091F803C0BCF1280F06D14FF0010C0CFA8E
:1009100000FCC2F814C00AE091F803C0BCF1480F13
:1009200005D14FF0010C0CFA00FCC2F810C0401CBD
:100930000828D1D31460B1F800C0BCF1FF0F34DD3A
:10094000546800202EE000F1080C4FF0010808FA6E
:100950000CF3B1F800C00CEA03069E4221D18300DB
:100960004FF00F0C0CFA03F7BC4305FA03FC4CEAFA
:10097000040491F803C0BCF1280F05D100F1080C64
:1009800008FA0CF8C2F8148091F803C0BCF1480FC3
:1009900007D100F1080C4FF0010808FA0CF8C2F872
:1009A0001080401C0828CED35460BDE8F0810000C0
:1009B000F0B50A46002300240021002500F000467F
:1009C000B6F1004F02D11D4EF16901E01B4E716876
:1009D000C0F3034583B200F44016B6F5401F08D1BA
:1009E00021F07061154E766826F07066134F7E60B8
:1009F00012E000F48016B6F5801F06D1032606FA31
:100A000005F4A14341F0706106E0460D360103FA9A
:100A100006F6B14341F0706122B1460D360103FA8A
:100A200006F6314300F00046B6F1004F02D1034E06
:100A3000F16101E0014E7160F0BD00000000014075
:100A40000161704700BFFEE708B50121102000F0EA
:100A5000F5F803208DF8020010208DF80300400106
:100A6000ADF8000069460B48FFF716FF4FF48070A1
:100A7000ADF8000069460748FFF70EFF4FF400711C
:100A80000448FFF7DDFF4FF480710248FFF7D8FFFD
:100A900008BD00000010014000BFFEE710B54FF494
:100AA000E1510A2000F002F810BD000030B589B015
:100AB00004460D4601210C2000F0C0F8012102205F
:100AC00000F0ACF818208DF8230003208DF82200E8
:100AD0004020ADF8200008A92F48FFF7DDFE802058
:100AE000ADF8200008A92C48FFF7D6FE0120ADF88C
:100AF000200008A92948FFF7CFFE0220ADF820000A
:100B000008A92648FFF7C8FE0020ADF81A00ADF886
:100B10001600681E80B2ADF81800601E80B2ADF8F5
:100B2000140005A91E4800F013FE7020ADF8040063
:100B30000020ADF80C000120ADF806000020ADF853
:100B40000A0001A9164800F075FC01A9144800F03C
:100B5000C7FC01A9124800F023FD01A9104800F0CC
:100B600079FD08210E4800F0B1FC08210C4800F086
:100B700009FD08210A4800F063FD0821084800F03B
:100B8000A7FD0121064800F08DFB0121044800F07B
:100B90009BFB09B030BD000000080140000C014083
:100BA000000400407047000070B5002100230F22B0
:100BB000C47804B3154C246804F4E064C4F5E0641C
:100BC000210AC1F10403CA40447804FA03F184788D
:100BD0001440214309010E4C0678A155047804F015
:100BE0001F050124AC4005786D11AD0005F1E0252D
:100BF000C5F8004109E0047804F01F050124AC4069
:100C0000044D0678761145F8264070BD0CED00E0E5
:100C100000E400E080E100E07047000029B1064AEE
:100C2000D2690243044BDA6104E0034AD269824389
:100C3000014BDA61704700000010024029B1064AFA
:100C400092690243044B9A6104E0034A9269824329
:100C5000014B9A61704700000010024030B500213E
:100C60000022002400232D4D6D6805F00C0121B1F8
:100C7000042905D0082923D105E0294D056022E08B
:100C8000274D05601FE0254D6D6805F47012234D5A
:100C90006D6805F48034022505EB92421CB9214DA4
:100CA000554305600BE01D4D6D6805F400351DB121
:100CB0001C4D5543056002E0194D5543056002E0A7
:100CC000174D056000BF00BF144D6D6805F0F001C1
:100CD0000909154D6B5C0568DD4045600F4D6D6879
:100CE00005F4E061090A104D6B5C4568DD408560E4
:100CF0000A4D6D6805F46051C90A0B4D6B5C45687F
:100D0000DD40C560054D6D6805F44041890B074D18
:100D10006B5CC568B5FBF3F5056130BD00100240A2
:100D200000127A0000093D0043000020530000201B
:100D3000704710B500F002F810BD00000CB500209F
:100D4000019000903348006840F4803031490860D9
:100D500000BF3048006800F4003000900198401C4B
:100D60000190009818B90198B0F5A06FF1D1294809
:100D7000006800F4003010B10120009001E0002074
:100D800000900098012843D12348006840F01000EB
:100D9000214908600846006820F003000860084602
:100DA000006840F0020008601A484068194948602D
:100DB0000846406848600846406840F480604860E3
:100DC0000846406820F47C1048600846406840F4BB
:100DD000E81048600846006840F08070086000BF76
:100DE0000C48006800F000700028F9D009484068FD
:100DF00020F00300074948600846406840F00200C0
:100E0000486000BF0348406800F00C000828F9D192
:100E10000CBD0000001002400020024010B540F25E
:100E2000DC5244F62061482000F0EEFC0021012055
:100E300000F006F86FF05901022000F001F810BD33
:100E40002DE9F05F81460C46B9F1010F03D0B9F1ED
:100E5000020F38D11BE014F15A0F01DB5A2C00DDD0
:100E600031E02046FFF7ABFA0546184A184BFFF76A
:100E700034FA82460022174BFFF788F90746FFF73E
:100E8000AFFA0446A1B2144800F02FFC1BE014F1A5
:100E9000B40F01DB002C00DD15E02046FFF78FFAD0
:100EA00007460A4A0D4BFFF718FA054600220C4B7D
:100EB000FFF76CF98246FFF793FA0446A1B20648A1
:100EC00000F015FC00BF00BFBDE8F09F8EE3388E38
:100ED000E338264000709740002C0140E33826C0DC
:100EE00000407F400A480068401C094908600948E2
:100EF0000068401C0749086007480068401C064914
:100F0000086006480068401C0449086070470000FB
:100F100000000020040000200C000020140000202D
:100F200070B501460A46B2F1807F01D301201DE071
:100F300022F07F40401E4FF0E023586158170F23E6
:100F4000002807DA1C07260E0A4C00F00F052D1F9B
:100F5000665503E01C07250E074C255400BF0020F2
:100F60004FF0E023986107201861002008B100BF0E
:100F7000FEE770BD18ED00E000E400E010B5134896
:100F8000006840F0010011490860084640681049B7
:100F900008400E494860084600680E4908400B4961
:100FA00008600846006820F4802008600846406811
:100FB00020F4FE0048604FF41F008860FFF7B9FE80
:100FC0004FF000600449086010BD000000100240AE
:100FD0000000FFF8FFFFF6FE08ED00E0F0B50C465C
:100FE000154600220021068C4FF6FE773E4006840F
:100FF000028B018C4FF60C7632407E1C06EA0316FB
:101000002E433243104EB0420ED0104EB0420BD0A1
:10101000B0F1804F08D00E4EB04205D00D4EB04218
:1010200002D00D4EB04206D14FF6FD76314044F06D
:101030000106314305E04FF6F576314044F00106F4
:10104000314302830184F0BD002C01400034014093
:101050000004004000080040000C0040F0B50C46C1
:101060001546002200210026078C4FF6EF7C07EA88
:101070000C070784028B018C4FF6FF7707EA0416F2
:1010800040F6FF473A404FF6FF7707EA03373A4307
:101090004FF6FF7707EA05273A43114FB8420ED0C3
:1010A000104FB8420BD0B0F1804F08D00E4FB8426D
:1010B00005D00E4FB84202D00D4FB84206D14FF6C0
:1010C000DF77394046F01007394305E04FF65F7788
:1010D000394044F01007394302830184F0BD000019
:1010E000002C014000340140000400400008004092
:1010F000000C0040F0B50C461546002200210026E9
:10110000078C4FF6FF6C07EA0C070784828B018C73
:101110004FF6FF7707EA04264FF60C773A404FF672
:10112000FF7707EA03172F433A43114FB8420ED017
:10113000104FB8420BD0B0F1804F08D00E4FB842DC
:1011400005D00E4FB84202D00D4FB84206D14FF62F
:10115000FF57394046F48077394305E04FF2FF5797
:10116000394044F48077394382830184F0BD000024
:10117000002C014000340140000400400008004001
:10118000000C0040F0B50C46154600220021002658
:10119000078C4EF6FF7C07EA0C070784828B018CD4
:1011A0004FF6FF7707EA043640F6FF473A404FF61E
:1011B000FF7707EA05273A434FF6FF7707EA033739
:1011C0003A43114FB8420ED0104FB8420BD0B0F195
:1011D000804F08D00E4FB84205D00E4FB84202D013
:1011E0000D4FB84206D14DF6FF77394046F480578F
:1011F000394305E047F6FF57394044F480573943F7
:1012000082830184F0BD0000002C014000340140C5
:101210000004004000080040000C004010B501210F
:10122000880700F08DF8012816D10121800700F011
:1012300048F84FF08040008800F0100030B10748B7
:101240000088401E00B20549088005E00348008878
:10125000401C00B20149088010BD00001C000020A5
:1012600010B501210D4800F06BF8012815D10121BE
:101270000A4800F026F80948008800F0100030B154
:1012800007480088401E00B20549088005E0044870
:101290000088401C00B20249088010BD00080040D0
:1012A0001E00002021B1028842F08002028004E08A
:1012B00002884FF67F731A4002807047CA43028249
:1012C0007047CA430282704721B1028842F001028E
:1012D000028004E002884FF6FE731A4002807047D5
:1012E00031B1B0F8442042F40042A0F8442005E0B7
:1012F000B0F84420C2F30E02A0F844207047F0B5C5
:101300000C4615461E460021002200230189028B4F
:10131000038C4FF6F877394021434FF6FC473A40AB
:1013200040F201173A434FF6DD773B404FF6FF7727
:1013300007EA06172F433B43018102830384F0BD74
:1013400030B50246002000230024158A05EA010377
:10135000958905EA010413B10CB1012000E00020D9
:1013600030BD000070B505460C46244885420ED0BD
:10137000234885420BD0B5F1804F08D021488542E3
:1013800005D02148854202D02048854200D100E0A6
:1013900000BF208850B92389A28861882846FFF7BA
:1013A0001DFEE188284600F0A7F925E020880428E2
:1013B0000AD12389A28861882846FFF74FFEE18879
:1013C000284600F0A2F917E0208808280AD12389CE
:1013D000A28861882846FFF78DFEE188284600F044
:1013E000A1F909E02389A28861882846FFF7CAFE8F
:1013F000E188284600F09FF970BD0000002C0140F4
:10140000003401400004004000080040000C00408F
:10141000002101804180012181800021C180018162
:1014200070471AB183890B43838102E083898B4320
:101430008381704770B5002400220023058C4FF68D
:10144000FE7635400584028C8388048B4FF68F75B9
:101450002C40B51E2C400D882C43751E2A400D894A
:101460002A434D882A43144DA8420BD0134DA8425D
:1014700008D0134DA84205D0124DA84202D0124DFB
:10148000A84213D14FF6F7752A404D892A434FF6EB
:10149000FB752A408D882A434FF6FF652B404FF697
:1014A000FF552B408D892B43CD892B4383800483AB
:1014B000CD888586028470BD002C01400034014037
:1014C0000040014000440140004801400A4600211C
:1014D000018B4FF6F77319401143018370470000E9
:1014E00070B5002400220023058C4FF6EF763540BE
:1014F0000584028C8388048B48F6FF752C404FF6D8
:10150000FF452C400D884FF6FF7606EA05252C4353
:101510004FF6DF752A400D8906EA05152A434D88E6
:1015200006EA05152A43154DA84202D0144DA842DB
:101530001DD14FF67F752A404D894FF6FF7606EA9A
:1015400005152A434FF6BF752A408D8806EA051512
:101550002A434FF6FF352B404FF2FF752B408D8904
:1015600006EA85052B43CD8906EA85052B43838052
:101570000483CD880587028470BD0000002C0140E3
:10158000003401400A460021018B4FF2FF731940DD
:101590004FF6FF7303EA02231943018370470000EB
:1015A00070B5002400220023058C4FF6FF663540FD
:1015B0000584028C8388848B4FF68F752C404FF600
:1015C000FC752C400D882C434FF6FF552A400D89A1
:1015D0004FF6FF7606EA05252A434D8806EA0525DB
:1015E0002A43154DA84202D0144DA8421DD14FF2F6
:1015F000FF752A404D894FF6FF7606EA05252A43F6
:101600004FF6FF352A408D8806EA05252A434EF617
:10161000FF752B404DF6FF752B408D8906EA0515A9
:101620002B43CD8906EA05152B4383808483CD881F
:101630008587028470BD0000002C01400034014009
:101640000A460021818B4FF6F773194011438183BD
:101650007047000070B5002200230024058C4EF670
:10166000FF7635400584038C8488828B48F6FF75AD
:101670002A404FF6FF452A400D884FF6FF7606EACE
:1016800005252A434DF6FF752B400D8906EA0535E1
:101690002B434D8806EA05352B430B4DA84202D05B
:1016A0000A4DA84208D14BF6FF752C408D894FF6A4
:1016B000FF7606EA85152C4384808283CD88A0F8C6
:1016C0004050038470BD0000002C014000340140F4
:1016D0000A460021818B4FF2FF7319404FF6FF73CA
:1016E00003EA022319438183704781867047A0F87B
:1016F0004010704781847047028B4FF6F3731A4095
:101700000283028B0A4302837047028B4FF2FF333E
:101710001A400283028B4FF6FF7303EA01231A4338
:1017200002837047828B4FF6F3731A408283828B59
:101730000A4382837047828B4FF2FF331A408283C1
:10174000828B4FF6FF7303EA01231A4382837047AB
:10175000002202881D4B98420ED01D4B98420BD0A0
:10176000B0F1804F08D01B4B984205D01A4B9842DD
:1017700002D01A4B984204D14FF68F731A404B880F
:101780001A43174B984207D0164B984204D04FF695
:10179000FF431A40CB881A4302808B8883850B88CD
:1017A00003850A4B98420BD0094B984208D00E4B48
:1017B000984205D00D4B984202D00D4B984201D172
:1017C0000B7A03860123838270470000002C0140BE
:1017D000003401400004004000080040000C0040BC
:1017E000001000400014004000400140004401404F
:1017F000004801404FF6FF71818000210180C180C7
:10180000418001727047000070B588B004460E46F2
:101810001546012140F60400FFF710FA4FF410605E
:10182000ADF81C0018208DF81F0003208DF81E0055
:1018300007A92548FFF730F8701E80B2ADF81400F4
:10184000601E80B2ADF810000020ADF81600ADF8B3
:1018500012008DF8180004A91C48FFF779FF012138
:101860001A48FFF71FFD6020ADF800000120ADF819
:1018700002000020ADF80400ADF80800ADF80A0041
:101880004FF48070ADF80C000020ADF80E00ADF8FC
:10189000065069460D48FFF7CDFD08210B48FFF7BC
:1018A00015FE69460948FFF7D5FE08210748FFF7EE
:1018B0000FFF01210548FFF707FD01210348FFF74E
:1018C0000FFD08B070BD000000080140002C014071
:1018D00010B500242021294800F066F801284BD1DA
:1018E0002648001D0088C4B2254804800D2C3CD237
:1018F000DFE804F0070B0F13171B1F23272B2F33D1
:10190000370000201F49087035E001201D4908708C
:1019100031E002201B4908702DE0032019490870AE
:1019200029E004201749087025E0002016490870B6
:1019300021E00120144908701DE0022012490870BE
:1019400019E003201049087015E004200E490870C2
:1019500011E00A200D4908700DE00F200B490870B6
:1019600009E014200949087005E0002005490870C5
:101970000549087000BF00BF10BD000000440040D2
:1019800004380140400000204100002042000020B7
:1019900021B1828942F40052828104E082894DF6AD
:1019A000FF731A408281704702460020B1F5007F24
:1019B00000D100BF13880B400BB1012000E00020D4
:1019C0007047F0B50346002400260025002040F6AD
:1019D0006A17B94200D100BF1846C1F3421401F0A2
:1019E0001F06012707FA06F5012C01D10C3004E08F
:1019F000022C01D1103000E014301AB107682F43D7
:101A0000076002E00768AF430760F0BD2DE9F047CB
:101A100086B005460E460024A24600BFA146002718
:101A2000B08900B100BF2F462C8A4CF6FF700440ED
:101A3000F08804432C82AC894EF6F3100440B08841
:101A400031890843718908430443AC81AC8A4FF65D
:101A5000FF400440B0890443AC8201A8FFF7FEF8C0
:101A60001F48874202D1DDF810A001E0DDF80CA08C
:101A7000A88900F4004040B10AEBCA0000EB0A104C
:101A800031684900B0FBF1F807E00AEBCA0000EB4F
:101A90000A1031688900B0FBF1F86420B8FBF0F05F
:101AA00004012009642101FB1089A88900F4004089
:101AB00040B1322000EBC900B0FBF1F000F00700AC
:101AC000044308E0322000EB09106421B0FBF1F080
:101AD00000F00F0004432C8106B0BDE8F087000041
:101AE0000038014000BFFEE710B586B00446012172
:101AF00044F20400FFF7A2F803208DF81600182026
:101B00008DF817004FF40070ADF8140005A91248C5
:101B1000FEF7C2FE04208DF817000002ADF8140095
:101B200005A90D48FEF7B8FE01940020ADF80800A5
:101B3000ADF80A00ADF80C000C20ADF80E00002046
:101B4000ADF8100001A90548FFF760FF0121034827
:101B5000FFF71EFF06B010BD00080140003801402D
:101B600010B586B0044601210420FFF767F8012173
:101B70004804FFF753F803208DF8160018208DF85D
:101B800017000420ADF8140005A91C48FEF784FED8
:101B900048208DF817000820ADF8140005A9174853
:101BA000FEF77AFE01940020ADF810000C20ADF88D
:101BB0000E000020ADF80C00ADF80A00ADF80800EA
:101BC00001A90F48FFF722FF012240F225510C48DE
:101BD000FFF7F7FE26208DF8000000208DF80100A9
:101BE00001208DF802008DF803006846FEF7DCFF47
:101BF00001210348FFF7CCFE06B010BD00080140EC
:101C0000004400400FB4054B10B503A9044A0298E4
:101C100000F0DAF810BC5DF814FB0000F7240008AF
:101C20005800002002E008C8121F08C1002AFAD19B
:101C300070477047002001E001C1121F002AFBD14C
:101C4000704700002DE9FF5F82B00021DDE904301C
:101C5000020DDDF840B0034318D044F61050A2F254
:101C6000FF3242431514119801281FD0A5EB0B0039
:101C7000401C5FEA000A4FF000064E4FDFF8389133
:101C8000B046504615D5CAF1000413E0119801245E
:101C90004AA3012801D16FEA0B010298119AC0E909
:101CA0000031C0E9024206B0BDE8F09FCBF1000070
:101CB000DFE704460021404A491842EB0450CDE9D1
:101CC000001012E0E00707D032463B464046494646
:101CD000FEF703FB8046894632463B4610461946CE
:101CE000FEF7FBFA06460F466410002CEAD1DDE948
:101CF0000401DDE90023BAF1000F06DAFEF7EDFA80
:101D000042464B46FEF7E9FA05E0FEF75DFC424627
:101D10004B46FEF759FC04460E460022284BFEF7C0
:101D2000DBFC03D84FF0FF30014607E00022254BD3
:101D300020463146FEF72AFAFEF7B5FC102409E0EA
:101D4000002C0ADB0A220023FEF77FFB039B3032C4
:101D50001A55641E50EA0102F2D1641C039AC4F1C0
:101D600011031444119A012A03D0012208430DD112
:101D70000AE0084304D000204FF0110B119072E7E5
:101D8000A3EB0B056D1E0DE05B4504DD4FF000027B
:101D900005F1010504E003DA4FF00002A5F10105A9
:101DA000002AECD002981199C0E90231C0E900453F
:101DB00079E70000000014400000F03F3000000010
:101DC0000000F0430000E03F2DE9FF4F95B09B4637
:101DD0008946064600250FE2252877D100242746AC
:101DE000F84A0121059400E0044316F8013F203B26
:101DF00001FA03F01042F7D130782A2811D06FF0A1
:101E00002F033078A0F13002092A16D8059A44F041
:101E1000020402EB820203EB42021044761C05909E
:101E2000EFE759F8042B0592002A03DA504244F4F4
:101E30000054059044F00204761C30782E2816D108
:101E400016F8010F44F004042A280DD06FF02F0279
:101E50003078A0F13003092B09D807EB870302EB98
:101E60004303C718761CF3E759F8047B761C3078D7
:101E70006C280FD006DC4C2817D068280DD06A28B3
:101E800014D104E0742810D07A280FD10DE044F466
:101E900000140AE044F4801401E044F44014727821
:101EA000824202D104F58014761C761C30786628B4
:101EB0000BD013DC582877D009DC002875D04528D2
:101EC000F6D04628F4D047281AD19DE118E06328BF
:101ED00035D0642879D0652812D195E1702873D067
:101EE00008DC6728F1D069286FD06E280DD06F28E4
:101EF00006D1B5E073282CD0752875D0782874D019
:101F00005A46179990476D1C75E1C4F30250022898
:101F100009D003280DD0D9F8001004280DD00D6089
:101F200009F1040967E1D9F80010EA17C1E9005284
:101F3000F6E7D9F800100D80F2E70D70F0E719F818
:101F4000041B8DF8001000208DF80100EA460120E6
:101F500003E059F804AB4FF0FF3061074FF0000188
:101F600002D40DE008F101018846B9420FDA80453C
:101F7000F8DB1AF808100029F4D108E008F1010193
:101F800088468142FADB1AF808100029F6D1059834
:101F90005B46A0EB080721463846179A00F094FAF2
:101FA000284400EB080507E04DE029E10DE01AF8B0
:101FB000010B5A4617999047B8F10108F7D25B46D2
:101FC00021463846179A13E142E00A220092C4F3F0
:101FD00002524FF0000A022A08D059F804CB032A13
:101FE0004FEAEC710AD00DE029E02AE009F107017F
:101FF00021F00702F2E802C1914609E00FFA8CFCD9
:102000004FEAEC71042A03D14FFA8CFC4FEAEC71D1
:10201000002907DA0A460021DCF1000C61EB02011D
:102020002D2202E0220504D52B228DF80420012266
:1020300003E0E20701D02022F7E7904659E00A21A9
:1020400002E010220DE010214FF0000A00910BE099
:1020500010224FF0000A44F004040827009203E025
:1020600008224FF0000A0092C4F30252022A05D05F
:1020700059F804CB0021032A08D009E009F107012F
:1020800021F00702F2E802C1914605E01FFA8CFC3C
:10209000042A01D10CF0FF0C4FF00008220728D5CC
:1020A000702806D0009B83F0100353EA0A0305D082
:1020B0000EE040228DF80420012208E05CEA0102D3
:1020C00006D030228DF804208DF8050002229046BB
:1020D000009B83F0080353EA0A030AD15CEA010279
:1020E00001D1620705D530228DF804204FF0010898
:1020F0007F1E582804D034A003900EA802900DE053
:1021000036A0F9E753466046009AFEF79EF98446EA
:102110000398825C0298401E029002705CEA010003
:10212000F0D1029806A9081A00F1200A600702D52A
:1021300024F4803400E00127574502DDA7EB0A00B4
:1021400000E0002000EB0A01009005984144401A8D
:102150000590E00306D45B462146179A059800F0E7
:10216000B3F90544002706E001A85A46C05D179957
:1021700090476D1C7F1C4745F6DBE0030CD55B46A2
:102180002146179A059800F09FF9054404E0302095
:102190005A46179990476D1C0099481E00900029D7
:1021A000F5DC08E0029802995A460078491C029131
:1021B000179990476D1CBAF10001AAF1010AF1DCF0
:1021C00065E10000092801003031323334353637FB
:1021D0003839616263646566000000003031323373
:1021E0003435363738394142434445460000000013
:1021F00000F058F90544761C307800287FF4ECADE7
:1022000019B02846BDE8F08F620700D4062709F10F
:10221000070222F0070CFCE80223E14603F0004825
:102220005FEA080C02D00FF2702C0DE05FEA045C4C
:1022300002D50FF2682C07E05FEAC47C02D00FF2EF
:10224000602C01E0AFF2700C4FF0FF3823F0004338
:10225000CDF850C065280CD006DC452809D04628AA
:102260001DD047283DD13DE0662818D067287ED193
:1022700038E00021112F01DB112000E0781CCDE9AE
:10228000000106A90EA8FFF7DDFCDDE90F010E9A9B
:1022900003910021009207F1010A04914DE04FF0F3
:1022A00000400097CDE9011006A90EA8FFF7CAFC6F
:1022B000DDE90F0203920E9B11990022DDF80CA0BC
:1022C0000093049211B9791C00EB010AB7EB0A00E4
:1022D00004D4C0F1FF3007F1010A0490AAEB070013
:1022E000019044E0012F00DA01270021112F01DDC8
:1022F000112000E03846CDE9000106A90EA8FFF73D
:10230000A1FCDDE90F010E9A0391002104910092D6
:10231000BA4621070CD40399514500DA8A46BAF12E
:10232000010F05DD009AAAF10101515C302908D0A6
:10233000B84202DA10F1040F06DA0121CDE90110EA
:1023400015E0AAF10101E9E7002805DC0499014440
:102350000491AAEB000102E0411C514500DD8A46D0
:102360000499401A401C01904FF000400290200751
:1023700004D40198504501DBCDF8048000208DF88D
:102380004F0002980DF14F07B0F1004F25D02B20E0
:102390000E9002984FF0020800280CDA404202909A
:1023A0002D200E9007E00A210298FEF738F8303110
:1023B000029007F8011DB8F10001A8F10108F2DC54
:1023C00002980028EFD1791E0E980870307800F03E
:1023D000200040F0450007F8020D12A8C01B00F1D4
:1023E00007081498007800B1012000EB0A01019859
:1023F00001EBE07105984144401A401E0590E0034E
:1024000006D45B462146179A059800F05DF805440E
:102410001498007818B15A46179990476D1CE0033C
:1024200024D55B462146179A059800F04DF80544DF
:102430001CE00498002807DBDDE90301884203DD86
:102440000098405C179901E0179930205A46904750
:10245000049805F10105401C04900198401E01906C
:1024600004D12E205A46179990476D1CBAF10001ED
:10247000AAF1010ADDDC05E017F8010B5A461799AD
:1024800090476D1CB8F10001A8F10108F4DC5B462F
:102490002146179A0598ABE62D0000002B0000009E
:1024A000200000002DE9F041044600251E46174695
:1024B000880404D405E039462020B0476D1C641E12
:1024C000F9D52846BDE8F0812DE9F0410446002504
:1024D0001E469046C80301D5302700E02027880417
:1024E00004D505E041463846B0476D1C641EF9D559
:1024F0002846BDE8F08138B504468DF800006946ED
:102500000320ABBE204638BD86B0142101A8FDF7DC
:1025100032FE00BF01210846FEF790FB01210D4865
:10252000FEF746FA00BF0C48FEF7FAFCFEF78CFAFD
:102530004FF4E130FFF7D8FA08A0FFF763FBFEF78E
:10254000ADFAFEF7FCF8FEF769FCFEF7EFF800BF06
:10255000FEE70000000230004019010048656C6C85
:102560006F205859440D0A008825000800000020FB
:102570005C000000241C0008E42500085C0000202A
:1025800004040000341C00080000000000000000EB
:102590000500000000000000050000000000000031
:1025A0001E0000000000000000000000000000000D
:1025B000000000000000000000000000000000001B
:1025C000000000000000000000000A000000000100
:1025D00002030401020304060708090204060800B6
:0425E00000000000F7
:0400000508000131BD
:00000001FF
